:100000000C9435000C945D000C945D000C945D0024
:100010000C945D000C945D000C946A100C945D00CF
:100020000C945D000C945D000C945D000C945D00DC
:100030000C945D000C945D000C945D000C945D00CC
:100040000C94C8030C945D000C9438040C941204B6
:100050000C945D000C945D000C945D000C945D00AC
:100060000C945D000C945D00801111241FBECFEF35
:10007000D8E0DEBFCDBF11E0A0E0B1E0E4EDF5E2F5
:1000800002C005900D92A036B107D9F722E0A0E694
:10009000B1E001C01D92A339B207E1F710E0C5E35A
:1000A000D0E004C02197FE010E94D212C433D107D0
:1000B000C9F70E946D100C94E8120C940000AF92E6
:1000C000BF92CF92DF92EF92FF920F931F93CF9345
:1000D000DF936C017B018B01040F151FEB015E01A7
:1000E000AE18BF08C017D10759F06991D601ED913C
:1000F000FC910190F081E02DC6010995892B79F7DB
:10010000C501DF91CF911F910F91FF90EF90DF908C
:10011000CF90BF90AF900895FC01538D448D252F53
:1001200030E0842F90E0821B930B541710F0CF9691
:10013000089501970895FC01918D828D981761F0C3
:10014000A28DAE0FBF2FB11D5D968C91928D9F5FDA
:100150009F73928F90E008958FEF9FEF0895FC01B9
:10016000918D828D981731F0828DE80FF11D858D6C
:1001700090E008958FEF9FEF0895FC01918D228DFF
:10018000892F90E0805C9F4F821B91098F73992784
:1001900008958AEC91E00E94BD0021E0892B09F4CA
:1001A00020E0822F08950E94C90081110C94000064
:1001B000089580E090E0892B11F00C94D30008950D
:1001C000FC01A48DA80FB92FB11DA35ABF4F2C91CC
:1001D000848D90E001968F739927848FA689B789C3
:1001E0002C93A089B1898C91837080648C93938DBA
:1001F000848D981306C00288F389E02D80818F7D5D
:1002000080830895EF92FF920F931F93CF93DF9314
:10021000EC0181E0888F9B8D8C8D98131AC0E88942
:10022000F989808185FF15C09FB7F894EE89FF8911
:100230006083E889F98980818370806480839FBFAF
:1002400081E090E0DF91CF911F910F91FF90EF90AF
:100250000895F62E0B8D10E00F5F1F4F0F731127BF
:10026000E02E8C8D8E110CC00FB607FCFACFE889FA
:10027000F989808185FFF5CFCE010E94E000F1CFA2
:10028000EB8DEC0FFD2FF11DE35AFF4FF0829FB76E
:10029000F8940B8FEA89FB8980818062CFCFCF935E
:1002A000DF93EC01888D8823B9F0AA89BB89E8899E
:1002B000F9898C9185FD03C0808186FD0DC00FB644
:1002C00007FCF7CF8C9185FFF2CF808185FFEDCFC2
:1002D000CE010E94E000E9CFDF91CF910895CF9346
:1002E000DF93FC0101900020E9F73197AF01481B33
:1002F000590BBC018AEC91E00E945F00EC0142E0E6
:1003000050E069E171E08AEC91E00E945F008C0F9F
:100310009D1FDF91CF910895CF93DF9300D000D040
:100320001F92CDB7DEB766246A94762C99E0592ED9
:1003300024E0A22EB12C00916401109165017D8210
:100340006C82D12C90E0480181E1880E911C0FB69F
:10035000F8940F92D8015A968C915A97882351F1AC
:1003600081505A968C935A978D919C91892B71F458
:10037000E0919E01F0919F01309719F082A58F5F67
:1003800082A7D8011596FC93EE931497F801808507
:10039000882339F0C80108960E94B50481110E9493
:1003A00085070F900FBE80916401909165010E94B6
:1003B000110AC1CF2C813D81232B19F40F900FBE60
:1003C000BACF911109C08091690289838091670237
:1003D000909168029B838A830F900FBE0E946405F0
:1003E0000FB6F8940F92D8015D968C915D978F3F70
:1003F00011F45D961C92F801868D8F3F09F4168EDC
:100400000F900FBEBE016C5F7F4FCE0101960E9420
:1004100082048111AFC0C8010E946A05882309F4D3
:10042000A3C0D8018D919C91892B09F078C00FB69B
:10043000F8940F92F801E480F580E114F10409F4D6
:1004400091C0D70156968C915697E0919E01F091FC
:100450009F019689891708F07AC01C962D913C91CE
:100460001D9737FD0CC0E0919E01F0919F01968988
:100470009501291B31091D963C932E931C97859D50
:10048000C001112486599D4FF70122853385281715
:10049000390709F054C06701F2E0CF0ED11CC60144
:1004A0000E94B705E0919E01F0919F01E689D70176
:1004B0005696EC9380918E028E1710F4E0938E0284
:1004C0005E9EF0011124E659FD4F0180F281E02D7E
:1004D000D7011596FC93EE93149784819581179616
:1004E0009C938E931697A481B5811396DC92CE923D
:1004F0001297D582C482D7015696EC915697E59D06
:10050000F0011124E659FD4F1B96FC93EE931A97C8
:1005100080818F5F8083DD24D3940F900FBE6C8128
:100520007D81C4010E943607C8010E9475050E94A2
:100530004508811102C00E94850791E008CFE09133
:100540009E01F0919F018689F701868BE4CFE091AF
:100550009E01F0919F01DD24D39499969C91868908
:100560009817D8F2D12CD9CFC8010E9475050E94E6
:100570004508E3CFC8010E9475050E944508C801DF
:100580000E946A058823C9F2DD2009F4D4CE0FB693
:10059000F8940F92F8018189882309F478C00688BD
:1005A000F789E02D908184E0891BD80114960D9184
:1005B0001C910115110509F401CFF80191A59817B7
:1005C00008F4982FD80156968C915697891709F4FC
:1005D000F5CE9A962C919A97213009F0EFCE569647
:1005E0009C9356971C962D913C911D9737FD07C003
:1005F0009501291B31091D963C932E931C97859DCF
:10060000C001112486599D4FF80122853385281792
:10061000390709F0D3CE7801F2E0EF0EF11CC701E3
:100620000E94B705D8015696EC9180918E028E17E4
:1006300010F4E0938E025E9EF0011124E659FD4F06
:100640000180F281E02DD8011596FC93EE9314976A
:100650008481958117969C938E931697A481B5817A
:100660001396FC92EE921297F582E482D801569688
:10067000EC915697E59DF0011124E659FD4F1B962C
:10068000FC93EE931A9780818F5F808397CE80E0F2
:100690008CCF0F931F93CF93DF93E091DA01F0910A
:1006A000DB0182E08083E091D601F091D7011082D6
:1006B000E091D801F091D9018FEC80831092E20192
:1006C000E091DE01F091DF0186E08083E091DC01C2
:1006D000F091DD01808180618083E091DC01F09107
:1006E000DD01808188608083E091DC01F091DD0193
:1006F000808180688083E091DC01F091DD01808160
:100700008F7D80838FE190E00E94C10FEC01009704
:1007100081F09983888381E08B8F1C8ECE010E94AB
:1007200055071D821C82198218821E82CE010E94EA
:10073000110AD0936501C0936401CD2B41F48CE183
:1007400091E0DF91CF911F910F910C946F0110E018
:1007500000E021E040E450E062E371E08CE891E0E9
:100760000E94DF0F009771F48EE391E00E946F0109
:100770008091640190916501DF91CF911F910F915C
:100780000C94AB0DDF91CF911F910F910C943C0B0A
:100790001F920F920FB60F9211242F933F938F93B6
:1007A0009F93AF93BF938091C6019091C701A09191
:1007B000C801B091C9013091C50123E0230F2D3745
:1007C00058F50196A11DB11D2093C5018093C60166
:1007D0009093C701A093C801B093C9018091C10152
:1007E0009091C201A091C301B091C4010196A11DD5
:1007F000B11D8093C1019093C201A093C301B09336
:10080000C401BF91AF919F918F913F912F910F9014
:100810000FBE0F901F90189526E8230F0296A11D7A
:10082000B11DD2CF1F920F920FB60F9211242F93AA
:100830003F934F935F936F937F938F939F93AF9368
:10084000BF93EF93FF938AEC91E00E94E000FF9149
:10085000EF91BF91AF919F918F917F916F915F9138
:100860004F913F912F910F900FBE0F901F901895B1
:100870001F920F920FB60F9211242F938F939F9375
:10088000EF93FF93E091DA01F091DB018081E09139
:10089000E001F091E10182FD1BC090818091E301B4
:1008A0008F5F8F732091E401821741F0E091E301A3
:1008B000F0E0E653FE4F958F8093E301FF91EF91B7
:1008C0009F918F912F910F900FBE0F901F901895B1
:1008D0008081F4CFE0919C01F0919D018081811194
:1008E00007C08FEF9FEF9093C0018093BF010895E1
:1008F000E0919C01F0919D010580F681E02D8081C1
:100900009181F1CFFC01DB010FB6F8940F92409179
:100910006702509168022D913C9111972F3F320749
:1009200011F181819281609169027081761749F09D
:100930004817590730F01D921C9281E00F900FBEAE
:100940000895481B590B42175307A8F7241B350B72
:100950002D933C93809169028083809167029091EE
:1009600068029283818380E0E9CFCF93DF93DC013B
:100970001596ED91FC910680F781E02DA489B5894B
:100980008685978520893189EC013D832C83C08938
:10099000D1899B838A83CF010C9611962D913C912E
:1009A00012972817390721F41296DC93CE931197EA
:1009B000158A148A2C9121502C93209185012111A4
:1009C00057C0A285B3858481958126813781EC014A
:1009D0003D832C83C681D7819B838A83CF01029676
:1009E00011962D913C9112972817390721F41296F0
:1009F000DC93CE931197138612862C9121502C9361
:100A0000C68920918E022C1710F4C0938E0229E023
:100A10002C9FE0011124C659DD4F0980DA81C02DD9
:100A2000D583C4834C815D8157834683AC81BD816E
:100A300013969C938E9312979D838C83A689A29F75
:100A4000D0011124A659BD4FB387A2878C918F5F27
:100A50008C93A0919E01B0919F01968956968C919E
:100A6000891730F581E080937B01DF91CF91089564
:100A7000A0917D01B0917E01B787A68714962D9134
:100A80003C911597318B208B1496CD91DC91159765
:100A90009B838A8315969C938E9314978CE791E0A1
:100AA000958B848B80917C018F5F80937C01D1CF6B
:100AB00080E0DBCF0FB6F8940F928091670290919F
:100AC00068020F900FBE0895809185018F5F80931B
:100AD000850108950FB6F8940F92FC01928D0F9046
:100AE0000FBE81E0911180E00895EF92FF920F9385
:100AF0001F93CF93DF93EC010FB6F8940F921E8DE6
:100B00007C0181E1E80EF11C01E01116D4F08FEFB9
:100B10008E8F0F900FBE0FB6F8940F921D8D7E0131
:100B200088E0E80EF11C01E01116B4F08FEF8D8F14
:100B30000F900FBEDF91CF911F910F91FF90EF901B
:100B400008958989882319F3C7010E94B50481118A
:100B500000937B011150D9CF8885882339F3C701D1
:100B60000E94B504811100937B011150DDCFCF931A
:100B7000DF93FC01A085B185828193812481358139
:100B8000EC013D832C83C481D5819B838A8311969C
:100B90008D919C9112978E179F0721F41296DC93EA
:100BA000CE931197118610868C9181508C93DF9192
:100BB000CF9108950F931F93CF93DF938C01FB0187
:100BC00080819181D80113968F3F9807F1F4E80155
:100BD000AF81B88512968D919C91139793838283F0
:100BE000EC01FD83EC83B583A4831396FC93EE9311
:100BF000129711870087F80180818F5F8083DF91D2
:100C0000CF911F910F910895D90112962D913C918A
:100C10001397E9014881598184179507A8F7DACF1E
:100C2000FC0173836283918780874617570790F092
:100C3000421B530B8485958548175907C8F4BF019B
:100C40006E5F7F4F8091A4019091A5010E94DA050B
:100C500080E008954217530718F46217730740F4B1
:100C6000BF016E5F7F4F8091A6019091A701EECFEB
:100C700081E00895EF92FF920F931F93CF93DF933C
:100C8000EC018B017A016C857D85600F711F9801E5
:100C9000A701CE010E941006811107C0DF91CF91FC
:100CA0001F910F91FF90EF9008958C859D85080FFF
:100CB000191FE889F989CE010995E5CFEF92FF92D6
:100CC0000F931F93CF93DF938C017B01E091A601DB
:100CD000F091A7010580F681E02DC681D781CE0174
:100CE00002960E94B7058A8982FF0FC0A701B8014A
:100CF000CE010E943A06E889F989CE01DF91CF91B1
:100D00001F910F91FF90EF9009948E7F8A8BF3CF04
:100D1000E091A601F091A701808181110DC0809121
:100D2000A4019091A5019093A7018093A601F0934F
:100D3000A501E093A40108950580F681E02D6FEFF1
:100D40007FEF808191810E945E06E2CFBF92CF92B9
:100D5000DF92EF92FF920F931F93CF93DF93EC01FB
:100D6000B62EC0906702D090680200919C0110914D
:100D70009D01E0909A01F0909B0180919E019091DD
:100D80009F0102960E94B705CF3FDC0709F042C0E1
:100D9000BB2009F43FC0E0919201F0919301A09132
:100DA0009E01B0919F011596FC93EE931497A0912C
:100DB0009E01B0919F018481958117969C938E939B
:100DC000169780919E0190919F01A481B581029612
:100DD00013969C938E93129780919E0190919F0100
:100DE000029695838483E0919E01F0919F0181E9B1
:100DF00091E093878287809191018F5F8093910129
:100E0000DF91CF911F910F91FF90EF90DF90CF90E6
:100E1000BF900895CC0DDD1DE0919E01F0919F01E2
:100E2000D383C28360919E0170919F016E5F7F4F5B
:100E3000CC15DD0560F4C701DF91CF911F910F91B3
:100E4000FF90EF90DF90CF90BF900C94DA05C8012F
:100E50000E94DA058091BF019091C001C817D9079F
:100E600078F6D093C001C093BF01CACFCF93DF9370
:100E7000EB0160919E0170919F01645F7F4F0E9422
:100E8000DA0561E0CE01DF91CF910C94A606FC015A
:100E90000396928381832FEF3FEF348323839683DE
:100EA00085839087878310820895CF93DF93EC0129
:100EB0000FB6F8940F92888199812B8D4C8DBC01CF
:100EC000249F600D711D11247D836C831A8E9B837A
:100ED0008A832150330B429FB001439F700D112430
:100EE000860F971F9F838E838FEF8D8F8E8FCE01FE
:100EF00008960E944707CE0141960E9447070F902F
:100F00000FBE81E0DF91CF9108950F920FB6F89454
:100F10000F921F9211242F923F924F925F926F92E5
:100F20007F928F929F92AF92BF92CF92DF92EF9279
:100F3000FF920F931F932F933F934F935F936F9362
:100F40007F938F939F93AF93BF93CF93DF93EF9351
:100F5000FF93A0919E01B0919F010DB60D920EB628
:100F60000D9280918501882321F081E080937B019F
:100F700061C010927B01A0919E01B0919F01E09110
:100F80009E01F0919F012D913C918789908D821750
:100F90009307A8F080919E0190919F0180919E01FE
:100FA00090919F01259A2D9A2FEF87EA91E6215083
:100FB00080409040E1F700C000001D9AF5CF2091DD
:100FC0008E0289E001C02150422F50E0849FF00141
:100FD000859FF00D1124E659FD4F9081992399F3D7
:100FE000A181B28112966D917C9172836183289F59
:100FF000C001112483599D4F6817790721F4858119
:1010000096819283818389E0849FF001859FF00D12
:101010001124E659FD4F0180F281E02D86819781F0
:1010200090939F0180939E0120938E0280919E0158
:1010300090919F01A0919E01B0919F01CD91CDBF54
:10104000DD91DEBFFF91EF91DF91CF91BF91AF9125
:101050009F918F917F916F915F914F913F912F91D0
:101060001F910F91FF90EF90DF90CF90BF90AF90C6
:101070009F908F907F906F905F904F903F902F90B8
:101080001F900F900FBE0F9008958F929F92BF9266
:10109000CF92DF92EF92FF920F931F93CF93DF9344
:1010A0000FB6F8940F92809185018150809385014D
:1010B00080918501882379F080E00F900FBEDF9149
:1010C000CF911F910F91FF90EF90DF90CF90BF9045
:1010D0009F908F90089580918701882369F3E09015
:1010E0008101F0908201F0E0E0E039E041E08091A0
:1010F0007C0181115EC0EF2B11F00E946A04E09028
:101100007901F0907A01E114F10409F47DC189E0DC
:10111000D82ECC24C3940FEF1FEF8091850181114D
:1011200061C1C0916702D09168024E018FEF881AA9
:10113000980A909268028092670281149104B9F42F
:1011400080919C0190919D0120919A0130919B0189
:1011500030939D0120939C0190939B0180939A0171
:10116000809169028F5F809369020E946A04809176
:10117000BF019091C001B12C8816990608F026C1D4
:10118000E0919E01F0919F01E689DE9EF00111241D
:10119000E659FD4F8081823010F0BB24B3948091DA
:1011A0007B01811103C0BB2009F425C1C0927B01E2
:1011B00022C1D7011696ED91FC91A489B589668567
:1011C000778580899189EB019D838C8380899189C2
:1011D000EC017B836A83BF01645F7F4F11960D91A1
:1011E0001C9112970617170721F412969C938E9361
:1011F0001197158A148A8C9181508C93A285B3859E
:101200008481958166817781EC017D836C83668121
:101210007781EB019B838A83CF01029611960D9112
:101220001C9112970817190721F412967C936E935C
:101230001197138612862C9121502C93A689209108
:101240008E022A1710F4A0938E023A9FD001112427
:10125000A659BD4F11960D90BC91A02DB583A483C6
:1012600014966D917C9115977783668314966D9192
:101270007C911597EB019B838A8315969C938E93A3
:1012800014979689939FD0011124A659BD4FB38717
:10129000A2878C918F5F8C93A0919E01B0919F014A
:1012A00056968C91891708F022CF40937B011FCF6F
:1012B000E0919C01F0919D010580F681E02D068072
:1012C000F781E02D828193818816990628F4909306
:1012D000C0018093BF0154CFC285D385848195819D
:1012E00026813781DC0115963C932E931497268135
:1012F0003781D90113969C938E931297CF01029652
:1013000049815A814817590711F43A832983138672
:101310001286288121502883A489B5891097F9F075
:101320002685378540895189E9015D834C83408951
:101330005189EA013B832A8311966D917C91129722
:101340009F01245F3F4F6217730721F412965C934D
:101350004E931197158A148A2C9121502C93A689AB
:1013600020918E022A1710F4A0938E02DA9ED001EB
:101370001124A659BD4F11960D90BC91A02DB58397
:10138000A48314962D913C91159737832683149648
:101390002D913C911597E9019B838A8315969C9327
:1013A0008E93149796899D9DD0011124A659BD4F07
:1013B000B387A2878C918F5F8C93E0919E01F0910F
:1013C0009F018689891710F4BB24B394E0919C0196
:1013D000F0919D01808181116BCF1093C00100932A
:1013E000BF01CECE8091790190917A0101969093C0
:1013F0007A0180937901D1E0ED1AF10809F08DCEE0
:1014000010927A011092790180917B01882309F46E
:1014100053CE80919E0190919F010E94850781E0AB
:101420004CCEAF92BF92DF92EF92FF920F931F9339
:10143000CF93DF9300D000D01F92CDB7DEB78C01E1
:101440001D821C8280E0780198E0E90EF11C0FB645
:10145000F8940F92D8015A962C915A975B969C91CA
:101460005B97291708F0B0C05A96DC905A975C96A3
:101470004C915C9741118CC08D919C91892B11F0FE
:1014800080E00AC0F801E480F580E114F10431F550
:1014900080E0F80115821482D394D8015A96DC9228
:1014A0005A9751969C91992321F0C80141960E9428
:1014B000B50481110E9485070F900FBE81E00F9047
:1014C0000F900F900F900F90DF91CF911F910F9180
:1014D000FF90EF90DF90BF90AF900895D7019A965C
:1014E0008C919A9781509A968C939A9756962C91B4
:1014F000569799969C91291759F28111C9CF570196
:10150000B2E0AB0EB11CC5010E94B705F70181A581
:10151000868B482F50E024E030E0241B350B3587C4
:10152000248790918E02981710F480938E0289E0A0
:10153000849FD001859FB00D1124A659BD4F1196EF
:101540000D90BC91A02DF701B583A48314962D9125
:101550003C911597378326831496ED91FC9115974E
:10156000B382A2821596BC92AE921497D70156967A
:10157000EC915697E89FF0011124E659FD4F1B9618
:10158000FC93EE931A9780818F5F808381E081CFF7
:1015900050E070E060E012968D919C910E94D8120C
:1015A000F801848D22813381820F932F911D9383C3
:1015B0008283248135818217930708F461CF80816B
:1015C0009181938382835CCF2C813D81232B21F4F5
:1015D0000F900FBE80E073CF811109C08091690226
:1015E000898380916702909168029B838A830F9020
:1015F0000FBE0E9464050FB6F8940F92F801858D16
:101600008F3F09F4158ED8015E968C915E978F3FBF
:1016100011F45E961C920F900FBEBE016C5F7F4F5F
:10162000CE0101960E948204811120C00FB6F89469
:101630000F92F801928D838D0F900FBE981310C0FA
:101640006C817D81C7010E943607C8010E94750523
:101650000E944508811102C00E94850781E0F7CEF3
:10166000C8010E9475050E944508F8CFC8010E9474
:1016700075050E944508AECFCF93DF93EC010FB6FE
:10168000F8940F92809187018F5F809387018091FA
:101690009E0190919F01892B09F080C0D0939F01FA
:1016A000C0939E0180918701813081F58AE692E0A6
:1016B0000E94470783E792E00E9447078CE792E089
:1016C0000E94470785E892E00E9447078FE691E075
:1016D0000E94470786E691E00E9447078CE791E069
:1016E0000E94470788E891E00E94470781E991E05E
:1016F0000E9447078FE691E090939D0180939C01A3
:1017000086E691E090939B0180939A018091780105
:101710008F5F80937801AE8980918E028A1710F4D2
:10172000A0938E0229E02A9FD0011124A659BD4F13
:1017300011960D90BC91A02DBD83AC8314968D9114
:101740009C9115979F838E831496ED91FC9115972C
:10175000CE0102969383828315969C938E93149761
:10176000EE89E29FF0011124E659FD4FFB87EA87DD
:1017700080818F5F80830F900FBE8091BE01882390
:1017800051F0E0919E01F0919F0196898E89981702
:1017900010F40E948507DF91CF9108958091BE01DA
:1017A0008111B4CFE0919E01F0919F0196898E89BD
:1017B000891708F4ABCFD0939F01C0939E01A6CFA9
:1017C0000F920FB6F8940F921F9211242F923F920E
:1017D0004F925F926F927F928F929F92AF92BF9241
:1017E000CF92DF92EF92FF920F931F932F933F932D
:1017F0004F935F936F937F938F939F93AF93BF9319
:10180000CF93DF93EF93FF93A0919E01B0919F013F
:101810000DB60D920EB60D9213BE80918501811109
:10182000F9C08091670290916802019690936802D6
:1018300080936702009781F520919C0130919D0172
:1018400040919A0150919B0150939D0140939C01BE
:1018500030939B0120939A01209169022F5F20937E
:101860006902E0919C01F0919D012081211107C046
:101870002FEF3FEF3093C0012093BF010DC0E091E7
:101880009C01F0919D010580F681E02D2081318140
:101890003093C0012093BF012091BF013091C0015E
:1018A0008217930710F420E0A1C020E039E0D32E86
:1018B000E0919C01F0919D013081311107C08FEFC3
:1018C0009FEF9093C0018093BF0190C0E0919C0175
:1018D000F0919D010580F681E02D0680F781E02DD5
:1018E000428153818417950728F45093C001409397
:1018F000BF017CC0A285B385448155816681778113
:10190000EA017D836C8366817781EB015B834A8387
:10191000AF014E5F5F4F11960D911C911297041706
:10192000150721F412967C936E93119713861286F5
:101930003C9131503C93A489B5891097F9F06685A4
:10194000778500891189EB011D830C83008911893A
:10195000E8017B836A831196ED90FC901297BF019A
:10196000645F7F4FE616F70621F412961C930E93E0
:101970001197158A148A3C9131503C93A689309175
:101980008E023A1710F4A0938E02DA9ED001112431
:10199000A659BD4F11960D90BC91A02DB583A4837F
:1019A00014966D917C9115977783668314966D914B
:1019B0007C911597EB015B834A8315965C934E935C
:1019C000149746894D9DD0011124A659BD4FB38768
:1019D000A2873C913F5F3C93E0919E01F0919F0173
:1019E0003689341708F064CF21E062CFE0919E0180
:1019F000F0919F01E689D9E0ED9FF0011124E659AD
:101A0000FD4F8081823008F021E080917B018111BF
:101A10000EC00AC08091790190917A01019690934D
:101A20007A01809379016CC0222309F469C0809106
:101A30008501882321F081E080937B0161C01092B1
:101A40007B01A0919E01B0919F01E0919E01F091D8
:101A50009F012D913C918789908D82179307A8F063
:101A600080919E0190919F0180919E0190919F0194
:101A7000259A2D9A2FEF87EA91E6215080409040D9
:101A8000E1F700C000001D9AF5CF20918E0289E099
:101A900001C02150422F50E0849FF001859FF00D3E
:101AA0001124E659FD4F9081992399F3A181B281C8
:101AB00012966D917C9172836183289FC0011124DD
:101AC00083599D4F6817790721F485819681928308
:101AD000818389E0849FF001859FF00D1124E659F0
:101AE000FD4F0180F281E02D8681978190939F01C7
:101AF00080939E0120938E0280919E0190919F0180
:101B0000A0919E01B0919F01CD91CDBFDD91DEBF2F
:101B1000FF91EF91DF91CF91BF91AF919F918F9105
:101B20007F916F915F914F913F912F911F910F91F5
:101B3000FF90EF90DF90CF90BF90AF909F908F90ED
:101B40007F906F905F904F903F902F901F900F90DD
:101B50000FBE0F900895CF93DF93009751F0EC01E3
:101B60000E946405CE010E944912DF91CF910C942E
:101B70004508DF91CF910895CF93DF93CDB7DEB7BE
:101B80002A970FB6F894DEBF0FBECDBF85E0B82E02
:101B9000CE0101967C01E091A601F091A701108190
:101BA000D12CC12C112329F00580F681E02DC080B5
:101BB000D1800E9464050E945A054C018091A001C9
:101BC0009091A1018816990608F090C00E9488069D
:101BD0009092A1018092A0010E944508D701EB2DAF
:101BE0001D92EA95E9F70091BC011091BD011A869A
:101BF000198680E04801F1E18F0E911C0FB6F89430
:101C00000F92D8015A96DC905A97DD2009F42FC123
:101C10005C964C915C974423F9F050E016968D91B8
:101C20009C911797840F951F17969C938E931697E8
:101C300014962D913C9115978217930738F08D914A
:101C40009C91119717969C938E931697F801668135
:101C50007781C7010E94D812DA94D8015A96DC9293
:101C60005A9718968C91882339F0C80108960E94DB
:101C7000B50481110E9485070F900FBEA980A7FCB3
:101C8000B2CF0C811D81D8011A968D919C91892B20
:101C900021F0C80102960E94B7050E945A056C0106
:101CA0008091A0019091A101C816D90610F40E945C
:101CB0008806D092A101C092A001EFEFEA0DE930B1
:101CC00008F091CF0E2E000CFF0BE359F14FD80115
:101CD00052968C9152970C94D212F00EF00E330F54
:101CE0001B0F2D0FF00EF00E330F1B0F9092A10162
:101CF0008092A001112351F08C149D0470F00E9479
:101D00004508B401C6010E945E0668CFE091A401B7
:101D1000F091A50161E08081811160E00091BC013A
:101D20001091BD010FB6F8940F92D8015D968C9179
:101D30005D978F3F11F45D961C92F801868D8F3F61
:101D400009F4168E0F900FBED8015A968C915A97AF
:101D500081113CC05296ED91FC91A0919E01B091F1
:101D60009F011F96FC93EE931E97A0919E01B09148
:101D70009F018481958151969C938E935097809179
:101D80009E0190919F01A481B5810C9613969C931E
:101D90008E93129780919E0190919F010C9695834E
:101DA0008483E0919E01F0919F01C8014196958B3B
:101DB000848BF80181898F5F818BC601881999090D
:101DC000662311F08FEF9FEF0E94A606C8010E94C4
:101DD00075050E944508811101CF0E948507FECE3E
:101DE0008160F801828B8A809B8064857585680D8F
:101DF000791D9401A601C8010E941006882309F4E8
:101E0000F2CED80152968C91529782FF10C01C9648
:101E10006D917C91680D791DA601C8010E943A065A
:101E2000D8015096ED91FC91C8010995DCCE8E7FCA
:101E3000F801828BF5CF816052968C9352976A811C
:101E40007B811D967C936E931C976C0D7D1D960176
:101E5000A601C8010E941006C6CE81FD04C0C801BB
:101E60000E94AB0DC0CE8E7FF801828BBCCE29853F
:101E70003A85232B19F40F900FBE8DCE811109C026
:101E8000809169028E8380916702909168029887A1
:101E90008F830F900FBE0E9464050FB6F8940F92C7
:101EA000F801858D8F3F09F4158ED8015E968C91CF
:101EB0005E978F3F11F45E961C920F900FBEBE018D
:101EC000675F7F4FCE0106960E94820481111BC07E
:101ED000C8010E946A05882381F069857A85C4015A
:101EE0000E943607C8010E9475050E9445088111AD
:101EF00002C00E94850781E081CEC8010E9475055D
:101F00000E944508F8CFC8010E9475050E94450847
:101F1000C8010E946A05882371F33DCE00E010E0FD
:101F20008091860181110CC080916A02823010F08C
:101F30000E9485070115110599F30E94D300F0CF87
:101F40000FB6F8940F92E0918D01F0918E01C68149
:101F5000D781CE0102960E94B705809187018150FA
:101F600080938701809186018150809386010F9034
:101F70000FBE8F89988D0E94AB0DCE010E94AB0DD4
:101F8000CFCFCF93DF93EC010E946405CE010E9476
:101F9000AD11EC010E944508209769F4259A2D9A0D
:101FA0002FEF80E792E0215080409040E1F700C0A1
:101FB00000001D9AF5CFCE01DF91CF9108957F9259
:101FC0008F929F92AF92BF92CF92DF92EF92FF9249
:101FD0000F931F93CF93DF93982EA92E762E872EE3
:101FE0007A01B22ECA010E94C10F6C01D0E0C0E09C
:101FF000892B09F460C080E390E00E94C10FEC01DE
:10200000892B09F455C080E3DE011D928A95E9F71A
:10201000D88ECF8AA70165EA70E0C6010E94E1125E
:10202000B1E0EB1AF108EF89F88DEE0DFF1D672D79
:10203000782DCE0149969B01205F3F4FDB014D91EA
:10204000BD01DC014D93CD01AB0141505109DA01D5
:102050004C91442319F02617370781F718A6BE8A3A
:10206000B9A61B861A861D8A1C8AD987C88784E070
:1020700090E08B1991099D878C87DB8BCA8B9082AE
:10208000DF011197AC9211971C92119780E88C9305
:1020900011971C9257971C9211971C92B397F98332
:1020A000E8830115110539F0F801D183C08303C01D
:1020B000C6010E94AB0DCE01DF91CF911F910F9110
:1020C000FF90EF90DF90CF90BF90AF909F908F9058
:1020D0007F9008950E94E00B1895CF93DF93CDB7C2
:1020E000DEB760970FB6F894DEBF0FBECDBF789411
:1020F00084B5826084BD84B5816084BD85B582600D
:1021000085BD85B5816085BD80916E0081608093BD
:102110006E00109281008091810082608093810026
:102120008091810081608093810080918000816036
:10213000809380008091B10084608093B100809191
:10214000B00081608093B00080917A0084608093B9
:102150007A0080917A00826080937A0080917A0080
:10216000816080937A0080917A00806880937A0001
:102170001092C10020910501309106018FEF98E087
:10218000821B930B90930201809301010E944903EB
:10219000A3E5B1E0FE01319623E631E0BF018D9168
:1021A0008193882319F02A173B07C9F702EA11E047
:1021B00020E040EC50E08EE89FE00E94DF0F0097A7
:1021C00009F492C00E943C0B0FB6F8940F928091D4
:1021D000BC019091BD01892B51F581EB91E00E94EA
:1021E000470788EA91E00E94470781EB91E09093CE
:1021F000A7018093A60188EA91E09093A5018093BE
:10220000A40181E590E00E94C10F8C01009759F074
:102210004F96F801918380838AE0838F85E0848FD5
:10222000C8010E9455071093BD010093BC010F9097
:102230000FBE8091BC019091BD01892B09F454C05F
:102240000AEB11E023E04CE550E068E571E08CEB2F
:102250009DE00E94DF0F009709F446C00E943C0BEE
:10226000F8948FEF9FEF9093C0018093BF0181E0BE
:102270008093BE011092680210926702A89588E1CF
:1022800090EC0FB6F894A895809360000FBE9093E1
:102290006000A0919E01B0919F01CD91CDBFDD91D5
:1022A000DEBFFF91EF91DF91CF91BF91AF919F91F1
:1022B0008F917F916F915F914F913F912F911F91DE
:1022C0000F91FF90EF90DF90CF90BF90AF909F90D5
:1022D0008F907F906F905F904F903F902F901F90C6
:1022E0000F900FBE0F900895809100010E94490346
:1022F00000E010E001151105E9F30E94D300FACFC8
:10230000EAECF1E01382128288EE93E0A0E0B0E004
:1023100084839583A683B7838BE091E09183808348
:1023200085EC90E09587848784EC90E0978786879A
:1023300080EC90E0918B808B81EC90E0938B828B92
:1023400082EC90E0958B848B86EC90E0978B868B6B
:10235000118E128E138E148E08950F931F93CF93A8
:10236000DF938230910510F482E090E0E0919102D9
:10237000F091920230E020E0B0E0A0E0309799F4D4
:102380002115310509F44AC0281B390B24303105C9
:10239000D8F58A819B816115710589F1FB019383D1
:1023A0008283FE0111C0408151810281138148174F
:1023B0005907E0F04817590799F4109761F0129601
:1023C0000C93129713961C933296CF01DF91CF9105
:1023D0001F910F9108950093910210939202F4CFF0
:1023E0002115310551F04217530738F0A901DB01DF
:1023F0009A01BD01DF01F801C1CFEF01F9CF909340
:10240000920280939102CDCFFE01E20FF31F8193E0
:1024100091932250310939832883D7CF20918F029D
:1024200030919002232B41F420910301309104015B
:102430003093900220938F0220910101309102018C
:102440002115310541F42DB73EB74091050150915A
:102450000601241B350BE0918F02F0919002E217E8
:10246000F307A0F42E1B3F0B2817390778F0AC01B7
:102470004E5F5F4F2417350748F04E0F5F1F509394
:10248000900240938F02819391939FCFF0E0E0E020
:102490009CCFCF93DF930097E9F0FC013297138232
:1024A0001282A0919102B0919202ED0130E020E001
:1024B0001097A1F420813181820F931F20918F0208
:1024C000309190022817390709F061C0F09390020B
:1024D000E0938F02DF91CF910895EA01CE17DF07D5
:1024E000E8F54A815B819E0141155105B1F7E9018B
:1024F000FB83EA8349915991C40FD51FEC17FD075F
:1025000061F4808191810296840F951FE90199837E
:102510008883828193819B838A83F0E0E0E0129636
:102520008D919C9113970097B9F52D913C9111973E
:10253000CD010296820F931F20918F02309190025D
:102540002817390739F6309751F5109292021092F8
:102550009102B0939002A0938F02BCCFD383C28329
:1025600040815181840F951FC817D90761F44E5FD0
:102570005F4F88819981480F591F518340838A8119
:102580009B81938382832115310509F0B0CFF093AD
:102590009202E09391029ECFFD01DC01C0CF138235
:1025A0001282D7CFEE0FFF1F0590F491E02D099412
:1025B000FB01DC0102C001900D9241505040D8F760
:1025C0000895DC0101C06D9341505040E0F708953B
:0425D000F894FFCFAD
:1025D400030000930280000000000002015F008CF1
:1025E400004F01BD009B00AF000D0A006D757465BE
:1025F40078206372656174696F6E206661696C65C9
:10260400640062757A7A6572207461736B00746118
:10261400736B206372656174696F6E206661696CA7
:1026240065640049444C4500546D72205376630040
:00000001FF
