:100000000C9462000C948A000C948A000C948A0070
:100010000C948A000C948A000C94950E0C948A001F
:100020000C948A000C948A000C948A000C948A0028
:100030000C948A000C948A000C948A000C948A0018
:100040000C94AB030C948A000C941B040C94F503E1
:100050000C948A000C948A000C948A000C948A00F8
:100060000C948A000C948A000000000024002700F1
:100070002A000000000023002600290000000000E4
:10008000250028002B0004040404040404040202D4
:100090000202020203030303030301020408102007
:1000A0004080010204081020010204081020000012
:1000B0000008000201000003040700000000000027
:1000C0000000D10F11241FBECFEFD8E0DEBFCDBF9F
:1000D00011E0A0E0B1E0EEE4F6E202C005900D927E
:1000E000A636B107D9F722E0A6E6B1E001C01D921D
:1000F000A539B207E1F710E0C2E6D0E004C02197CD
:10010000FE010E940F13C136D107C9F70E94980E55
:100110000C9425130C940000E9EBF0E02491E5EA3F
:10012000F0E09491E1E9F0E0E491EE23C9F02223BC
:1001300039F0233001F1A8F4213019F1223029F1EE
:10014000F0E0EE0FFF1FE458FF4FA591B4912FB7D9
:10015000F894EC91811126C090959E239C932FBF1B
:1001600008952730A9F02830C9F0243049F72091AC
:1001700080002F7D03C0209180002F772093800086
:10018000DFCF24B52F7724BDDBCF24B52F7DFBCF68
:100190002091B0002F772093B000D2CF2091B000F3
:1001A0002F7DF9CF9E2BDACFAF92BF92CF92DF9205
:1001B000EF92FF920F931F93CF93DF936C017B011C
:1001C0008B01040F151FEB015E01AE18BF08C017AD
:1001D000D10759F06991D601ED91FC910190F08120
:1001E000E02DC6010995892B79F7C501DF91CF91E3
:1001F0001F910F91FF90EF90DF90CF90BF90AF9045
:100200000895FC01538D448D252F30E0842F90E01C
:10021000821B930B541710F0CF9608950197089501
:10022000FC01918D828D981761F0A28DAE0FBF2FCA
:10023000B11D5D968C91928D9F5F9F73928F90E020
:1002400008958FEF9FEF0895FC01918D828D98178F
:1002500031F0828DE80FF11D858D90E008958FEFCC
:100260009FEF0895FC01918D228D892F90E0805C95
:100270009F4F821B91098F739927089584EF91E016
:100280000E94320121E0892B09F420E0822F089599
:100290000E943E0181110C940000089580E090E0DE
:1002A000892B11F00C9448010895FC01A48DA80F2E
:1002B000B92FB11DA35ABF4F2C91848D90E00196A8
:1002C0008F739927848FA689B7892C93A089B189C8
:1002D0008C91837080648C93938D848D981306C069
:1002E0000288F389E02D80818F7D80830895EF92CD
:1002F000FF920F931F93CF93DF93EC0181E0888FE0
:100300009B8D8C8D98131AC0E889F989808185FFAF
:1003100015C09FB7F894EE89FF896083E889F98951
:1003200080818370806480839FBF81E090E0DF9153
:10033000CF911F910F91FF90EF900895F62E0B8DA6
:1003400010E00F5F1F4F0F731127E02E8C8D8E1161
:100350000CC00FB607FCFACFE889F989808185FFC8
:10036000F5CFCE010E945501F1CFEB8DEC0FFD2FA3
:10037000F11DE35AFF4FF0829FB7F8940B8FEA8983
:10038000FB8980818062CFCFCF93DF93EC01888D92
:100390008823B9F0AA89BB89E889F9898C9185FD00
:1003A00003C0808186FD0DC00FB607FCF7CF8C918E
:1003B00085FFF2CF808185FFEDCFCE010E945501F0
:1003C000E9CFDF91CF910895FC0101900020E9F77A
:1003D0003197AF01481B590BBC0184EF91E00C949D
:1003E000D4008F929F92AF92BF920F931F93CF939F
:1003F000DF93CDB7DEB7A1970FB6F894DEBF0FBE7F
:10040000CDBF19A2423008F44AE08E010F5D1F4FA4
:10041000842E912CB12CA12CA50194010E94ED12E7
:10042000E62FB901CA01EA30F4F4E05DD801EE9399
:100430008D01232B242B252B79F790E080E010975A
:1004400019F0CD010E94E401A1960FB6F894DEBF29
:100450000FBECDBFDF91CF911F910F91BF90AF9095
:100460009F908F900895E95CE1CF0F931F93E091E7
:100470000402F091050282E08083E0910002F09195
:1004800001021082E0910202F09103028FEC80835E
:1004900010920C02E0910802F091090286E080833C
:1004A000E0910602F0910702808180618083E091F3
:1004B0000602F0910702808188608083E091060245
:1004C000F0910702808180688083E0910602F091BC
:1004D000070280818F7D808310E000E021E040E40E
:1004E00050E069E171E087E892E00E940A0E00970F
:1004F00051F485E291E00E94E4018AE391E01F91CA
:100500000F910C94E4011F910F910C94C509E5EA39
:10051000F0E02491E1E9F0E08491882399F090E003
:10052000880F991FFC01E859FF4FA591B491FC0178
:10053000E458FF4F859194918FB7F894EC91E22B9A
:10054000EC938FBF46EA242E40E0342EF101249133
:10055000C2E9D0E0FE0184918823C9F090E0880FC1
:10056000991FFC01E859FF4FA591B491FC01E45893
:10057000FF4F459154913FB7F8949C91822F8095FD
:1005800098239C93FA019081892380833FBF93E055
:10059000A92EB12C23E2822E912C80E00E948C00A7
:1005A000C5010197F1F781E00E948C00C401019719
:1005B000F1F780E00E948C00F1016491FE018491CA
:1005C000E82FF0E0EE0FFF1FEE58FF4F859194915A
:1005D00000E412E42FE030E0462F0E944D04611544
:1005E00071058105910529F06F5F7F4F8F4F9F4FF8
:1005F0009F700E94C41128E23EE74CE05DE30E9438
:100600007B1220E030E040E05FE30E947B126B0150
:100610007C018DE391E00E94E401A7019601C701EE
:10062000B6010E94E8128823D1F088E491E00E948C
:10063000E40184E591E00E94E4018AE391E00E94F4
:10064000E4010E94590560E086E090E00E949B066C
:100650000E94F9078111A1CF0E9439079ECF2FEF89
:100660003FEF4FE75FE7C701B6010E94E812811133
:100670000DC02FEF3FEF4FE75FE7C701B6010E94C4
:10068000901118161CF48CE491E0D1CF2FEF3FEFBE
:100690004FE75FE4C701B6010E94761218161CF4FA
:1006A00080E591E0C4CF2FEF3FEF4FE75FECC7014C
:1006B000B6010E94901187FDF3CF2AE037ED43EA9F
:1006C0005BE3C701B6010E9424112B013C010E948B
:1006D00095116B017C010E94C4119B01AC01C30107
:1006E000B2010E9423112B013C014AE0C701B6016F
:1006F0000E94F1016EE284EF91E00E94770120E018
:1007000030E040E251E4C301B2010E947B122B01B0
:100710003C010E9495116B01F12CE12C4AE0C701CC
:10072000B6010E94F101C701B6010E94C4119B01EC
:10073000AC01C301B2010E94231120E030E040E28D
:1007400051E40E947B120E94951190E080E04AE003
:100750000E94F1016ECF1F920F920FB60F921124DB
:100760002F933F938F939F93AF93BF938091F0010B
:100770009091F101A091F201B091F3013091EF015C
:1007800023E0230F2D3758F50196A11DB11D2093AD
:10079000EF018093F0019093F101A093F201B093E7
:1007A000F3018091EB019091EC01A091ED01B091EA
:1007B000EE010196A11DB11D8093EB019093EC0118
:1007C000A093ED01B093EE01BF91AF919F918F91F6
:1007D0003F912F910F900FBE0F901F90189526E814
:1007E000230F0296A11DB11DD2CF1F920F920FB6FB
:1007F0000F9211242F933F934F935F936F937F93A7
:100800008F939F93AF93BF93EF93FF9384EF91E008
:100810000E945501FF91EF91BF91AF919F918F91F0
:100820007F916F915F914F913F912F910F900FBEEC
:100830000F901F9018951F920F920FB60F921124D0
:100840002F938F939F93EF93FF93E0910402F09186
:1008500005028081E0910A02F0910B0282FD1BC02B
:10086000908180910D028F5F8F7320910E0282170D
:1008700041F0E0910D02F0E0EC50FE4F958F809337
:100880000D02FF91EF919F918F912F910F900FBECD
:100890000F901F9018958081F4CFCF92DF92EF9246
:1008A000FF920F931F93E82FF92F05C001501109F4
:1008B0002109310961F1908196239417B9F305C09C
:1008C000015011092109310911F1908196239413E6
:1008D000F7CFC12CD12CE12CF12C0AC08FEFC81A14
:1008E000D80AE80AF80A0C151D052E053F0579F00F
:1008F00080818623841791F36C2D7D2D8E2D9F2D65
:100900001F910F91FF90EF90DF90CF90089560E0DE
:1009100070E080E090E01F910F91FF90EF90DF90EA
:10092000CF900895E091C301F091C40180818111BD
:1009300007C08FEF9FEF9093EA018093E90108953C
:10094000E091C301F091C4010580F681E02D808122
:100950009181F1CFCF93DF93DC011596ED91FC915E
:100960000680F781E02DA489B58986859785208941
:100970003189EC013D832C83C089D1899B838A8393
:10098000CF010C9611962D913C911297281739079B
:1009900021F41296DC93CE931197158A148A2C9128
:1009A00021502C9320918801211157C0A285B38535
:1009B0008481958126813781EC013D832C83C6811A
:1009C000D7819B838A83CF01029611962D913C910A
:1009D00012972817390721F41296DC93CE931197BA
:1009E000138612862C9121502C93C6892091870161
:1009F0002C1710F4C093870129E02C9FE0011124EB
:100A0000CC56DE4F0980DA81C02DD583C4834C815A
:100A10005D8157834683AC81BD8113969C938E93F1
:100A200012979D838C83A689A29FD0011124AC5676
:100A3000BE4FB387A2878C918F5F8C93A091C70123
:100A4000B091C801968956968C91891730F581E04E
:100A500080937D01DF91CF910895A0917F01B091A6
:100A60008001B787A68714962D913C911597318BFD
:100A7000208B1496CD91DC9115979B838A831596D4
:100A80009C938E9314978EE791E0958B848B809145
:100A90007E018F5F80937E01D1CF80E0DBCF0FB6E8
:100AA000F8940F928091E6019091E7010F900FBEAC
:100AB0000895809188018F5F8093880108950FB613
:100AC000F8940F92FC01928D0F900FBE81E091116E
:100AD00080E00895EF92FF920F931F93CF93DF93DF
:100AE000EC010FB6F8940F921E8D7C0181E1E80EA7
:100AF000F11C01E01116D4F08FEF8E8F0F900FBE16
:100B00000FB6F8940F921D8D7E0188E0E80EF11C5F
:100B100001E01116B4F08FEF8D8F0F900FBEDF91B3
:100B2000CF911F910F91FF90EF90089589898823AD
:100B300019F3C7010E94AA04811100937D0111508D
:100B4000D9CF8885882339F3C7010E94AA0481116F
:100B500000937D011150DDCFCF93DF93FC01A08581
:100B6000B1858281938124813581EC013D832C8381
:100B7000C481D5819B838A8311968D919C91129714
:100B80008E179F0721F41296DC93CE93119711864E
:100B900010868C9181508C93DF91CF9108950F93A3
:100BA0001F93CF93DF938C01FB0180819181D8014A
:100BB00013968F3F9807F1F4E801AF81B88512963C
:100BC0008D919C91139793838283EC01FD83EC8339
:100BD000B583A4831396FC93EE9312971187008735
:100BE000F80180818F5F8083DF91CF911F910F91FA
:100BF0000895D90112962D913C911397E9014881EE
:100C0000598184179507A8F7DACFFC0173836283B3
:100C1000918780874617570790F0421B530B8485B6
:100C2000958548175907C8F4BF016E5F7F4F8091C3
:100C3000CC019091CD010E94CF0580E0089542172C
:100C4000530718F46217730740F4BF016E5F7F4FBC
:100C50008091CE019091CF01EECF81E00895EF9287
:100C6000FF920F931F93CF93DF93EC018B017A01D7
:100C70006C857D85600F711F9801A701CE010E94D0
:100C80000506811107C0DF91CF911F910F91FF9051
:100C9000EF9008958C859D85080F191FE889F989C3
:100CA000CE010995E5CFEF92FF920F931F93CF935B
:100CB000DF938C017B01E091CE01F091CF010580A3
:100CC000F681E02DC681D781CE0102960E94AC0547
:100CD0008A8982FF0FC0A701B801CE010E942F06AA
:100CE000E889F989CE01DF91CF911F910F91FF9093
:100CF000EF9009948E7F8A8BF3CFE091CE01F09133
:100D0000CF01808181110DC08091CC019091CD01E6
:100D10009093CF018093CE01F093CD01E093CC016D
:100D200008950580F681E02D6FEF7FEF808191813E
:100D30000E945306E2CFBF92CF92DF92EF92FF92D2
:100D40000F931F93CF93DF93EC01B62EC090E60173
:100D5000D090E7010091C3011091C401E090C1015E
:100D6000F090C2018091C7019091C80102960E9443
:100D7000AC05CF3FDC0709F042C0BB2009F43FC0FF
:100D8000E091B901F091BA01A091C701B091C801F9
:100D90001596FC93EE931497A091C701B091C801EA
:100DA0008481958117969C938E9316978091C701A5
:100DB0009091C801A481B581029613969C938E935D
:100DC00012978091C7019091C80102969583848300
:100DD000E091C701F091C80188EB91E09387828789
:100DE0008091B8018F5F8093B801DF91CF911F91FF
:100DF0000F91FF90EF90DF90CF90BF900895CC0DB2
:100E0000DD1DE091C701F091C801D383C2836091D9
:100E1000C7017091C8016E5F7F4FCC15DD0560F48E
:100E2000C701DF91CF911F910F91FF90EF90DF905D
:100E3000CF90BF900C94CF05C8010E94CF05809140
:100E4000E9019091EA01C817D90778F6D093EA0131
:100E5000C093E901CACFFC010396928381832FEFEF
:100E60003FEF348323839683858390878783108223
:100E700008950F920FB6F8940F921F9211242F929B
:100E80003F924F925F926F927F928F929F92AF921A
:100E9000BF92CF92DF92EF92FF920F931F932F9307
:100EA0003F934F935F936F937F938F939F93AF93F2
:100EB000BF93CF93DF93EF93FF93A091C701B091BE
:100EC000C8010DB60D920EB60D928091880188234F
:100ED00021F081E080937D0161C010927D01A0919D
:100EE000C701B091C801E091C701F091C8012D91EF
:100EF0003C918789908D82179307A8F08091C70154
:100F00009091C8018091C7019091C801259A2D9AAE
:100F10002FEF87EA91E6215080409040E1F700C032
:100F200000001D9AF5CF2091870189E001C0215072
:100F3000422F50E0849FF001859FF00D1124EC5664
:100F4000FE4F9081992399F3A181B28112966D9100
:100F50007C9172836183289FC001112489569E4F22
:100F60006817790721F4858196819283818389E0CE
:100F7000849FF001859FF00D1124EC56FE4F0180F7
:100F8000F281E02D868197819093C8018093C701FB
:100F9000209387018091C7019091C801A091C7015A
:100FA000B091C801CD91CDBFDD91DEBFFF91EF9132
:100FB000DF91CF91BF91AF919F918F917F916F9171
:100FC0005F914F913F912F911F910F91FF90EF9063
:100FD000DF90CF90BF90AF909F908F907F906F9059
:100FE0005F904F903F902F901F900F900FBE0F90EB
:100FF00008958F929F92BF92CF92DF92EF92FF92CD
:101000000F931F93CF93DF930FB6F8940F928091B5
:10101000880181508093880180918801882379F02C
:1010200080E00F900FBEDF91CF911F910F91FF9045
:10103000EF90DF90CF90BF909F908F900895809118
:101040008A01882369F3E0908301F0908401F0E045
:10105000E0E039E041E080917E0181115EC0EF2B3C
:1010600011F00E949204E0907B01F0907C01E11469
:10107000F10409F47DC189E0D82ECC24C3940FEF8C
:101080001FEF80918801811161C1C091E601D0916B
:10109000E7014E018FEF881A980A9092E70180923B
:1010A000E60181149104B9F48091C3019091C401C7
:1010B0002091C1013091C2013093C4012093C3013A
:1010C0009093C2018093C1018091C9018F5F809389
:1010D000C9010E9492048091E9019091EA01B12C2A
:1010E0008816990608F026C1E091C701F091C80161
:1010F000E689DE9EF0011124EC56FE4F808182309D
:1011000010F0BB24B39480917D01811103C0BB20FA
:1011100009F425C1C0927D0122C1D7011696ED9137
:10112000FC91A489B5896685778580899189EB01D1
:101130009D838C8380899189EC017B836A83BF01C5
:10114000645F7F4F11960D911C9112970617170738
:1011500021F412969C938E931197158A148A8C9180
:1011600081508C93A285B385848195816681778136
:10117000EC017D836C8366817781EB019B838A839D
:10118000CF01029611960D911C911297081719071D
:1011900021F412967C936E931197138612862C91EC
:1011A00021502C93A689209187012A1710F4A0932F
:1011B00087013A9FD0011124AC56BE4F11960D9075
:1011C000BC91A02DB583A48314966D917C91159745
:1011D0007783668314966D917C911597EB019B83C1
:1011E0008A8315969C938E9314979689939FD0012A
:1011F0001124AC56BE4FB387A2878C918F5F8C931E
:10120000A091C701B091C80156968C91891708F03A
:1012100022CF40937D011FCFE091C301F091C40123
:101220000580F681E02D0680F781E02D8281938193
:101230008816990628F49093EA018093E90154CF27
:10124000C285D3858481958126813781DC011596FD
:101250003C932E93149726813781D90113969C9342
:101260008E931297CF01029649815A8148175907E8
:1012700011F43A832983138612862881215028830A
:10128000A489B5891097F9F0268537854089518959
:10129000E9015D834C8340895189EA013B832A83BC
:1012A00011966D917C9112979F01245F3F4F6217B9
:1012B000730721F412965C934E931197158A148A42
:1012C0002C9121502C93A689209187012A1710F484
:1012D000A0938701DA9ED0011124AC56BE4F11961F
:1012E0000D90BC91A02DB583A48314962D913C91B3
:1012F00015973783268314962D913C911597E90114
:101300009B838A8315969C938E93149796899D9DB3
:10131000D0011124AC56BE4FB387A2878C918F5F4A
:101320008C93E091C701F091C8018689891710F468
:10133000BB24B394E091C301F091C4018081811179
:101340006BCF1093EA010093E901CECE80917B012F
:1013500090917C01019690937C0180937B01D1E078
:10136000ED1AF10809F08DCE10927C0110927B01EC
:1013700080917D01882309F453CE8091C70190911B
:10138000C8010E94390781E04CCECF93DF93EC0176
:101390000FB6F8940F9280918A018F5F80938A0133
:1013A0008091C7019091C801892B09F080C0D0932A
:1013B000C801C093C70180918A01813081F584E919
:1013C00091E00E942B078DE991E00E942B0786EAAD
:1013D00091E00E942B078FEA91E00E942B0781E7A2
:1013E00091E00E942B0788E691E00E942B078EE790
:1013F00091E00E942B078BE891E00E942B0788EB7D
:1014000091E00E942B0781E791E09093C4018093C3
:10141000C30188E691E09093C2018093C10180915D
:101420007A018F5F80937A01AE89809187018A1754
:1014300010F4A093870129E02A9FD0011124AC5613
:10144000BE4F11960D90BC91A02DBD83AC83149618
:101450008D919C9115979F838E831496ED91FC91AD
:101460001597CE0102969383828315969C938E9353
:101470001497EE89E29FF0011124EC56FE4FFB8792
:10148000EA8780818F5F80830F900FBE8091E80193
:10149000882351F0E091C701F091C80196898E89A7
:1014A000981710F40E943907DF91CF910895809129
:1014B000E8018111B4CFE091C701F091C80196898C
:1014C0008E89891708F4ABCFD093C801C093C701A8
:1014D000A6CF0F920FB6F8940F921F9211242F925D
:1014E0003F924F925F926F927F928F929F92AF92B4
:1014F000BF92CF92DF92EF92FF920F931F932F93A1
:101500003F934F935F936F937F938F939F93AF938B
:10151000BF93CF93DF93EF93FF93A091C701B09157
:10152000C8010DB60D920EB60D9213BE80918801C2
:101530008111F9C08091E6019091E70101969093A5
:10154000E7018093E601009781F52091C301309176
:10155000C4014091C1015091C2015093C401409314
:10156000C3013093C2012093C1012091C9012F5FB3
:101570002093C901E091C301F091C40120812111A0
:1015800007C02FEF3FEF3093EA012093E9010DC030
:10159000E091C301F091C4010580F681E02D208126
:1015A00031813093EA012093E9012091E9013091E2
:1015B000EA018217930710F420E0A1C020E039E08F
:1015C000D32EE091C301F091C4013081311107C0E5
:1015D0008FEF9FEF9093EA018093E90190C0E09133
:1015E000C301F091C4010580F681E02D0680F781EA
:1015F000E02D428153818417950728F45093EA0126
:101600004093E9017CC0A285B38544815581668100
:101610007781EA017D836C8366817781EB015B834F
:101620004A83AF014E5F5F4F11960D911C91129747
:101630000417150721F412967C936E931197138665
:1016400012863C9131503C93A489B5891097F9F0EA
:101650006685778500891189EB011D830C830089DC
:101660001189E8017B836A831196ED90FC901297B3
:10167000BF01645F7F4FE616F70621F412961C93B4
:101680000E931197158A148A3C9131503C93A68988
:10169000309187013A1710F4A0938701DA9ED001A8
:1016A0001124AC56BE4F11960D90BC91A02DB58360
:1016B000A48314966D917C91159777836683149615
:1016C0006D917C911597EB015B834A8315965C9332
:1016D0004E93149746894D9DD0011124AC56BE4FB0
:1016E000B387A2873C913F5F3C93E091C701F091A3
:1016F000C8013689341708F064CF21E062CFE09149
:10170000C701F091C801E689D9E0ED9FF0011124ED
:10171000EC56FE4F8081823008F021E080917D01FF
:1017200081110EC00AC080917B0190917C010196CD
:1017300090937C0180937B016CC0222309F469C0E3
:1017400080918801882321F081E080937D0161C030
:1017500010927D01A091C701B091C801E091C7012D
:10176000F091C8012D913C918789908D8217930744
:10177000A8F08091C7019091C8018091C701909114
:10178000C801259A2D9A2FEF87EA91E621508040D3
:101790009040E1F700C000001D9AF5CF209187012D
:1017A00089E001C02150422F50E0849FF001859FC5
:1017B000F00D1124EC56FE4F9081992399F3A181ED
:1017C000B28112966D917C9172836183289FC001D2
:1017D000112489569E4F6817790721F485819681D7
:1017E0009283818389E0849FF001859FF00D11240D
:1017F000EC56FE4F0180F281E02D86819781909317
:10180000C8018093C701209387018091C7019091FF
:10181000C801A091C701B091C801CD91CDBFDD91A4
:10182000DEBFFF91EF91DF91CF91BF91AF919F917B
:101830008F917F916F915F914F913F912F911F9168
:101840000F91FF90EF90DF90CF90BF90AF909F905F
:101850008F907F906F905F904F903F902F901F9050
:101860000F900FBE0F900895CF93DF93009751F024
:10187000EC010E945905CE010E949A10DF91CF9190
:101880000C94F907DF91CF910895CF93DF9300D0A7
:1018900000D01F92CDB7DEB785E0B82ECE010196FD
:1018A0007C01E091CE01F091CF011081D12CC12CAF
:1018B000112329F00580F681E02DC080D1800E949F
:1018C00059050E944F054C018091C5019091C601B8
:1018D0008816990608F089C00E947D069092C6017C
:1018E0008092C5010E94F907D701EB2D1D92EA9560
:1018F000E9F70091E4011091E5010FB6F8940F9219
:10190000D8015A96DC905A97DD2009F42FC15C96D5
:101910004C915C974423F9F050E016968D919C9180
:101920001797840F951F17969C938E93169714966E
:101930002D913C9115978217930738F08D919C91CA
:10194000119717969C938E931697F801668177816D
:10195000C7010E941513DA94D8015A96DC925A975F
:1019600018968C91882339F0C80108960E94AA0421
:1019700081110E9439070F900FBEA980A7FCB9CF33
:101980000C811D81D8011A968D919C91892B21F093
:10199000C80102960E94AC050E944F056C0180911F
:1019A000C5019091C601C816D90610F40E947D06A3
:1019B000D092C601C092C501EFEFEA0DE93008F000
:1019C00098CF0E2E000CFF0BE451F34FD801529626
:1019D0008C9152970C940F136F0D6F0DB20D9A0DE1
:1019E000AC0D6F0D6F0DB20D9A0D9092C6018092E5
:1019F000C501112351F08C149D0470F00E94F90769
:101A0000B401C6010E9453066FCFE091CC01F09162
:101A1000CD0161E08081811160E00091E4011091CD
:101A2000E5010FB6F8940F92D8015D968C915D9701
:101A30008F3F11F45D961C92F801868D8F3F09F45B
:101A4000168E0F900FBED8015A968C915A9781111D
:101A50003CC05296ED91FC91A091C701B091C80194
:101A60001F96FC93EE931E97A091C701B091C801F9
:101A70008481958151969C938E9350978091C70154
:101A80009091C801A481B5810C9613969C938E9376
:101A900012978091C7019091C8010C969583848319
:101AA000E091C701F091C801C8014196958B848BE4
:101AB000F80181898F5F818BC60188199909662396
:101AC00011F08FEF9FEF0E949B06C8010E946A05EC
:101AD0000E94F907811108CF0E94390705CF816064
:101AE000F801828B8A809B8064857585680D791DDD
:101AF0009401A601C8010E940506882309F4F9CEC5
:101B0000D80152968C91529782FF10C01C966D910D
:101B10007C91680D791DA601C8010E942F06D8018D
:101B20005096ED91FC91C8010995E3CE8E7FF801A6
:101B3000828BF5CF816052968C9352976A817B811C
:101B40001D967C936E931C976C0D7D1D9601A601CE
:101B5000C8010E940506CDCE81FD04C0C8010E94C7
:101B6000340CC7CE8E7FF801828BC3CE0F900FBE90
:101B700098CE00E010E08091890181110CC0809125
:101B80009401823010F00E9439070115110599F374
:101B90000E944801F0CF0FB6F8940F92E0919001A7
:101BA000F0919101C681D781CE0102960E94AC05C9
:101BB00080918A01815080938A01809189018150AE
:101BC000809389010F900FBE8F89988D0E94340CED
:101BD000CE010E94340CCFCFCF93DF93EC010E9453
:101BE0005905CE010E94FE0FEC010E94F9072097D3
:101BF00069F4259A2D9A2FEF80E792E021508040DA
:101C00009040E1F700C000001D9AF5CFCE01DF91B2
:101C1000CF9108957F928F929F92AF92BF92CF9271
:101C2000DF92EF92FF920F931F93CF93DF93982E43
:101C3000A92E762E872E7A01B22ECA010E94EC0DB3
:101C40006C01D0E0C0E0892B09F460C080E390E033
:101C50000E94EC0DEC01892B09F455C080E3DE01F4
:101C60001D928A95E9F7D88ECF8AA70165EA70E0C0
:101C7000C6010E941E13B1E0EB1AF108EF89F88D3E
:101C8000EE0DFF1D672D782DCE0149969B01205F3B
:101C90003F4FDB014D91BD01DC014D93CD01AB0107
:101CA00041505109DA014C91442319F026173707A6
:101CB00081F718A6BE8AB9A61B861A861D8A1C8AB9
:101CC000D987C88784E090E08B1991099D878C871C
:101CD000DB8BCA8B9082DF011197AC9211971C921B
:101CE000119780E88C9311971C9257971C9211972B
:101CF0001C92B397F983E8830115110539F0F801B7
:101D0000D183C08303C0C6010E94340CCE01DF9191
:101D1000CF911F910F91FF90EF90DF90CF90BF90E8
:101D2000AF909F908F907F9008950E94690A1895B8
:101D3000CF93DF93CDB7DEB760970FB6F894DEBFD1
:101D40000FBECDBF789484B5826084BD84B58160B8
:101D500084BD85B5826085BD85B5816085BD809176
:101D60006E00816080936E001092810080918100EE
:101D700082608093810080918100816080938100E6
:101D8000809180008160809380008091B1008460A8
:101D90008093B1008091B00081608093B000809109
:101DA0007A00846080937A0080917A0082608093C8
:101DB0007A0080917A00816080937A0080917A0025
:101DC000806880937A001092C100209105013091C3
:101DD00006018FEF98E0821B930B90930201809392
:101DE00001010E943502A8E5B1E0FE013196BF0174
:101DF0008D918193882321F081E0A836B807C1F73F
:101E00000AEC11E020E040EC50E089EB9DE00E94FC
:101E10000A0E009709F4B9C00E94C5090FB6F894DC
:101E20000F928091E4019091E501892B09F050C057
:101E300089ED91E00E942B0780ED91E00E942B0735
:101E400089ED91E09093CF018093CE0180ED91E0F8
:101E50009093CD018093CC0181E590E00E94EC0D40
:101E60008C01009789F14F96F801918380838AE075
:101E7000838F85E0848F0FB6F8940F9280819181D3
:101E8000238D448DBC01249F600D711D1124758329
:101E90006483128E938382832150330B429FB0015F
:101EA000439F700D1124860F971F978386838FEFB2
:101EB000858F868FC80108960E942B07C80141961E
:101EC0000E942B070F900FBE1093E5010093E401D1
:101ED0000F900FBE8091E4019091E501892B09F4E8
:101EE00054C002EE11E023E04CE550E06DE571E0F6
:101EF00085E49CE00E940A0E009709F446C00E9407
:101F0000C509F8948FEF9FEF9093EA018093E90160
:101F100081E08093E8011092E7011092E601A89514
:101F200088E190EC0FB6F894A895809360000FBEFE
:101F300090936000A091C701B091C801CD91CDBF31
:101F4000DD91DEBFFF91EF91DF91CF91BF91AF9116
:101F50009F918F917F916F915F914F913F912F91C1
:101F60001F910F91FF90EF90DF90CF90BF90AF90B7
:101F70009F908F907F906F905F904F903F902F90A9
:101F80001F900F900FBE0F900895809100010E9446
:101F9000350200E010E001151105E9F30E94480147
:101FA000FACFE4EFF1E01382128288EE93E0A0E032
:101FB000B0E084839583A683B7838BE091E091831F
:101FC000808385EC90E09587848784EC90E0978708
:101FD000868780EC90E0918B808B81EC90E0938BF6
:101FE000828B82EC90E0958B848B86EC90E0978BD3
:101FF000868B118E128E138E148E08950F931F935D
:10200000CF93DF938230910510F482E090E0E0916D
:102010009302F091940230E020E0B0E0A0E030972D
:1020200099F42115310509F44AC0281B390B2430D5
:102030003105D8F58A819B816115710589F1FB0114
:1020400093838283FE0111C04081518102811381FB
:1020500048175907E0F04817590799F4109761F0AD
:1020600012960C93129713961C933296CF01DF9120
:10207000CF911F910F9108950093930210939402B2
:10208000F4CF2115310551F04217530738F0A9015B
:10209000DB019A01BD01DF01F801C1CFEF01F9CFEA
:1020A0009093940280939302CDCFFE01E20FF31F31
:1020B000819391932250310939832883D7CF20917E
:1020C000910230919202232B41F42091030130912F
:1020D00004013093920220939102209101013091EA
:1020E00002012115310541F42DB73EB7409105019C
:1020F00050910601241B350BE0919102F091920260
:10210000E217F307A0F42E1B3F0B2817390778F0CE
:10211000AC014E5F5F4F2417350748F04E0F5F1F2D
:102120005093920240939102819391939FCFF0E05C
:10213000E0E09CCFCF93DF930097E9F0FC0132976A
:1021400013821282A0919302B0919402ED0130E0CB
:1021500020E01097A1F420813181820F931F2091FC
:102160009102309192022817390709F061C0F0936B
:102170009202E0939102DF91CF910895EA01CE1788
:10218000DF07E8F54A815B819E0141155105B1F7F2
:10219000E901FB83EA8349915991C40FD51FEC17DC
:1021A000FD0761F4808191810296840F951FE901FA
:1021B00099838883828193819B838A83F0E0E0E026
:1021C00012968D919C9113970097B9F52D913C91A2
:1021D0001197CD010296820F931F209191023091A9
:1021E00092022817390739F6309751F51092940268
:1021F00010929302B0939202A0939102BCCFD3832A
:10220000C28340815181840F951FC817D90761F49B
:102210004E5F5F4F88819981480F591F51834083DA
:102220008A819B81938382832115310509F0B0CF88
:10223000F0939402E09393029ECFFD01DC01C0CFA6
:1022400013821282D7CF5058BB27AA270E943B1176
:102250000C943C120E942E1238F00E94351220F08D
:1022600039F49F3F19F426F40C942B120EF4E095E8
:10227000E7FB0C942512E92F0E944D1258F3BA1770
:10228000620773078407950720F079F4A6F50C948C
:102290006F120EF4E0950B2EBA2FA02D0B01B90191
:1022A00090010C01CA01A0011124FF27591B99F0CC
:1022B000593F50F4503E68F11A16F040A22F232FD8
:1022C000342F4427585FF3CF469537952795A79528
:1022D000F0405395C9F77EF41F16BA0B620B730BCF
:1022E000840BBAF09150A1F0FF0FBB1F661F771F40
:1022F000881FC2F70EC0BA0F621F731F841F48F4F5
:10230000879577956795B795F7959E3F08F0B0CF7D
:102310009395880F08F09927EE0F97958795089564
:102320000E94011208F481E008950E94551288F07D
:102330009F5798F0B92F9927B751B0F0E1F0660F89
:10234000771F881F991F1AF0BA95C9F714C0B130CA
:1023500091F00E946F12B1E008950C946F12672FF4
:10236000782F8827B85F39F0B93FCCF386957795F9
:102370006795B395D9F73EF49095809570956195E2
:102380007F4F8F4F9F4F0895E89409C097FB3EF40D
:1023900090958095709561957F4F8F4F9F4F9923B2
:1023A000A9F0F92F96E9BB279395F6958795779530
:1023B0006795B795F111F8CFFAF4BB0F11F460FFF0
:1023C0001BC06F5F7F4F8F4F9F4F16C0882311F048
:1023D00096E911C0772321F09EE8872F762F05C05C
:1023E000662371F096E8862F70E060E02AF09A95F7
:1023F000660F771F881FDAF7880F9695879597F9EC
:102400000895990F0008550FAA0BE0E8FEEF161685
:102410001706E807F907C0F012161306E407F507D8
:1024200098F0621B730B840B950B39F40A2661F04C
:10243000232B242B252B21F408950A2609F4A140EF
:10244000A6958FEF811D811D089597F99F6780E8FC
:1024500070E060E008959FEF80EC089500240A94F6
:102460001616170618060906089500240A9412166F
:102470001306140605060895092E0394000C11F4A2
:10248000882352F0BB0F40F4BF2B11F460FF04C04F
:102490006F5F7F4F8F4F9F4F089557FD9058440FA8
:1024A000551F59F05F3F71F04795880F97FB991FB3
:1024B00061F09F3F79F08795089512161306140670
:1024C000551FF2CF4695F1DF08C0161617061806FD
:1024D000991FF1CF86957105610508940895E894D8
:1024E000BB2766277727CB0197F908950E94011231
:1024F00008F48FEF08950E948E120C943C120E94F3
:102500002E1238F00E94351220F0952311F00C9411
:1025100025120C942B1211240C9470120E944D124F
:1025200070F3959FC1F3950F50E0551F629FF00126
:10253000729FBB27F00DB11D639FAA27F00DB11D3F
:10254000AA1F649F6627B00DA11D661F829F2227C8
:10255000B00DA11D621F739FB00DA11D621F839F4F
:10256000A00D611D221F749F3327A00D611D231F25
:10257000849F600D211D822F762F6A2F11249F5773
:1025800050409AF0F1F088234AF0EE0FFF1FBB1F76
:10259000661F771F881F91505040A9F79E3F510535
:1025A00080F00C9425120C9470125F3FE4F3983E77
:1025B000D4F3869577956795B795F795E7959F5FDF
:1025C000C1F7FE2B880F911D9695879597F9089571
:1025D0000E940112880B990B0895A1E21A2EAA1BE2
:1025E000BB1BFD010DC0AA1FBB1FEE1FFF1FA217C3
:1025F000B307E407F50720F0A21BB30BE40BF50BC0
:10260000661F771F881F991F1A9469F76095709548
:10261000809590959B01AC01BD01CF010895EE0F0F
:10262000FF1F0590F491E02D0994FB01DC0102C02D
:1026300001900D9241505040D8F70895DC0101C03F
:0E2640006D9341505040E0F70895F894FFCF9D
:10264E0003000095028000000000007701D4000115
:10265E0001C40132011001240153656E736F7220A3
:10266E005461736B007461736B206372656174697E
:10267E006F6E206661696C6564000D0A00446973B3
:10268E0074616E63653A20006E616E00696E66005D
:10269E006F76660020636D0049444C4500546D72A0
:0626AE00205376630000DA
:00000001FF
