:100000000C9462000C948A000C948A000C948A0070
:100010000C948A000C948A000C947A140C948A0034
:100020000C948A000C948A000C948A000C948A0028
:100030000C948A000C948A000C948A000C948A0018
:100040000C94C5050C948A000C9435060C940F068C
:100050000C948A000C948A000C948A000C948A00F8
:100060000C948A000C948A000000000024002700F1
:100070002A000000000023002600290000000000E4
:10008000250028002B0004040404040404040202D4
:100090000202020203030303030301020408102007
:1000A0004080010204081020010204081020000012
:1000B0000008000201000003040700000000000027
:1000C00000008D1511241FBECFEFD8E0DEBFCDBFDD
:1000D00011E0A0E0B1E0EAEFF2E302C005900D927A
:1000E000AC3EB107D9F723E0ACEEB1E001C01D9200
:1000F000AD31B207E1F710E0C2E6D0E004C02197CD
:10010000FE010E945119C136D107C9F70E947D1422
:100110000C947B190C94000090E0FC01E255FF4F19
:100120002491FC01E656FF4F3491FC01EA57FF4F42
:10013000E491EE23C9F0222339F0233001F1A8F431
:10014000213019F1223029F1F0E0EE0FFF1FE458C1
:10015000FF4FA591B4918FB7F894EC91611126C02F
:1001600030953E233C938FBF08952730A9F0283067
:10017000C9F0243049F7809180008F7D03C08091C1
:1001800080008F7780938000DFCF84B58F7784BD28
:10019000DBCF84B58F7DFBCF8091B0008F778093CC
:1001A000B000D2CF8091B0008F7DF9CF3E2BDACF57
:1001B000AF92BF92CF92DF92EF92FF920F931F9375
:1001C000CF93DF936C017B018B01040F151FEB01B3
:1001D0005E01AE18BF08C017D10759F06991D6016A
:1001E000ED91FC910190F081E02DC6010995892BDC
:1001F00079F7C501DF91CF911F910F91FF90EF909B
:10020000DF90CF90BF90AF900895FC01538D448D47
:10021000252F30E0842F90E0821B930B541710F0B1
:10022000CF96089501970895FC01918D828D9817BE
:1002300061F0A28DAE0FBF2FB11D5D968C91928D96
:100240009F5F9F73928F90E008958FEF9FEF0895C7
:10025000FC01918D828D981731F0828DE80FF11D90
:10026000858D90E008958FEF9FEF0895FC01918DAB
:10027000228D892F90E0805C9F4F821B91098F73A4
:100280009927089584E592E00E94360121E0892BA8
:1002900009F420E0822F08950E94420181110C94FC
:1002A0000000089580E090E0892B11F00C944C013F
:1002B0000895FC01A48DA80FB92FB11DA35ABF4FFB
:1002C0002C91848D90E001968F739927848FA68955
:1002D000B7892C93A089B1898C91837080648C93A9
:1002E000938D848D981306C00288F389E02D808158
:1002F0008F7D80830895EF92FF920F931F93CF938A
:10030000DF93EC0181E0888F9B8D8C8D98131AC050
:10031000E889F989808185FF15C09FB7F894EE8937
:10032000FF896083E889F989808183708064808394
:100330009FBF81E090E0DF91CF911F910F91FF90DF
:10034000EF900895F62E0B8D10E00F5F1F4F0F7387
:100350001127E02E8C8D8E110CC00FB607FCFACF42
:10036000E889F989808185FFF5CFCE010E94590186
:10037000F1CFEB8DEC0FFD2FF11DE35AFF4FF08213
:100380009FB7F8940B8FEA89FB8980818062CFCF79
:10039000CF93DF93EC01888D8823B9F0AA89BB89BC
:1003A000E889F9898C9185FD03C0808186FD0DC0A7
:1003B0000FB607FCF7CF8C9185FFF2CF808185FFC8
:1003C000EDCFCE010E945901E9CFDF91CF91089581
:1003D000FC0101900020E9F73197AF01481B590B50
:1003E000BC0184E592E00C94D8008F929F92AF926A
:1003F000BF920F931F93CF93DF93CDB7DEB7A19733
:100400000FB6F894DEBF0FBECDBF19A2423008F47C
:100410004AE08E010F5D1F4F842E912CB12CA12C30
:10042000A50194010E942F19E62FB901CA01EA30F3
:10043000F4F4E05DD801EE938D01232B242B252BC2
:1004400079F790E080E0109719F0CD010E94E80163
:10045000A1960FB6F894DEBF0FBECDBFDF91CF914E
:100460001F910F91BF90AF909F908F900895E95C7E
:10047000E1CF8F929F92AF92BF92CF92DF92EF9295
:10048000FF921F93CF93DF936B017C01B42E20E08A
:1004900030E0A9010E944C17D0E0C0E087FF0AC0FD
:1004A0006DE284E592E00E947B01EC01F7FAF094A2
:1004B000F7F8F09410E060E070E080E09FE31B1537
:1004C00041F020E030E040E251E40E9451171F5F0C
:1004D000F6CFA70196010E94E0166B017C010E94F5
:1004E000C3174B015C014AE00E94F501C80FD91FF8
:1004F0001123C1F1C501B4010E94F2179B01AC01A7
:10050000C701B6010E94DF166B017C016EE284E533
:1005100092E00E947B01C80FD91F115018F120E012
:1005200030E040E251E4C701B6010E94A9184B0136
:100530005C010E94C3176B01F12CE12C4AE0C7015A
:10054000B6010E94F501C80FD91FC701B6010E946C
:10055000F2179B01AC01C501B4010E94DF166B01CB
:100560007C01DBCFCE01DF91CF911F91FF90EF9007
:10057000DF90CF90BF90AF909F908F9008958F9213
:100580009F92AF92BF92CF92DF92EF92FF92CF9362
:100590006B017C01C42FAC019B010E9416198823BA
:1005A00069F08BE191E0CF91FF90EF90DF90CF90D9
:1005B000BF90AF909F908F900C94E8014601570137
:1005C000E894B7F82FEF3FEF4FE75FE7C501B401BD
:1005D0000E94161981110DC02FEF3FEF4FE75FE723
:1005E000C501B4010E944C1718161CF48FE191E06C
:1005F000DACF2FEF3FEF4FE75FE4C701B6010E946C
:10060000A41818161CF483E291E0CDCF2FEF3FEF32
:100610004FE75FECC701B6010E944C1787FDF3CF8F
:100620004C2FC701B601CF91FF90EF90DF90CF9094
:10063000BF90AF909F908F900C943902CF93DF932F
:100640000E94E801EC0187E291E00E94E8018C0F32
:100650009D1FDF91CF9108958F929F92AF92BF928D
:10066000CF92DF92EF92FF924B015C0169017A0118
:100670008AE291E00E94E80142E0C501B4010E94D3
:10068000BF0282E491E00E94E80142E0C701B601A6
:100690000E94BF028BE491E0FF90EF90DF90CF903B
:1006A000BF90AF909F908F900C94E80183E591E00C
:1006B0000E941E03D0E0C0E004E010E0C130D1058C
:1006C00009F444C0C8F1C230D10509F448C0C330B0
:1006D000D10509F44DC00E94A60760E088E391E0CF
:1006E0000E94E8080E94870A811102C00E94C7097F
:1006F0006FEF7FEF8091EE019091EF010E947E0DF0
:10070000813051F4E0900001F09001018091EE0100
:100710009091EF010E94530C83E791E0CE15DF0525
:1007200011F088E791E00E941E03CE010196B80106
:100730000E941B19EC01C2CF20E030E040EA50E4F7
:1007400060E070E0CB010E942C03C5CF20E030E0D8
:1007500040E251E460E070E080EA90E4F4CF20E011
:1007600030E040E751E460E070E080E291E4EBCFFC
:100770008EE591E00E94E80142E060E070E080E7F1
:1007800091E40E9439028BE491E00E94E801A3CF3A
:10079000EF92FF920F931F93CF93DF9300D0CDB7CB
:1007A000DEB7E0916402F091650282E08083E0911F
:1007B0006002F09161021082E0916202F0916302A6
:1007C0008FEC808310926C02E0916802F0916902D4
:1007D00086E08083E0916602F0916702808180610B
:1007E0008083E0916602F091670280818860808357
:1007F000E0916602F0916702808180688083E091D9
:100800006602F091670280818F7D80838FE190E0A6
:100810000E9434138C010097B1F0DC0111969C9377
:100820008E9381E05B968C935B975C961C92C801DB
:100830000E949709F8011582148211821082168293
:10084000C8010E94530C1093EF010093EE01012B9D
:1008500069F48DE791E00E941E030F900F90DF91E5
:10086000CF911F910F91FF90EF9008951A821982F6
:100870008E010F5F1F4F21E040E450E063E971E01B
:1008800081EE94E00E945213813059F08FE991E09B
:100890000E941E038091EE019091EF010E941E11B3
:1008A000DCCF10E000E021E040E450E06BEB71E0D1
:1008B00086E593E00E945213813079F285EC91E055
:1008C0000E941E038091EE019091EF010E941E1183
:1008D00009811A810115110509F4BFCF0FB6F894EB
:1008E0000F927801F2E0EF0EF11CC7010E94F907A8
:1008F000D80154968D919C91892B21F0C8010C96BA
:100900000E94F90780914F028F5F80934F02809180
:1009100051029091520220915002222309F448C0C2
:100920000817190709F044C0E0912C02F0912D023C
:10093000D8011596FC93EE931497848195811796B0
:100940009C938E931697A481B5811396FC92EE9298
:100950001297F582E4828BE292E0F8019387828716
:1009600080912B028F5F80932B028091F4018F5F27
:100970008093F40181E00F900FBE813049F0D801DF
:1009800057968D919C910E941E11C8010E941E11C4
:1009900080915002882309F460CF80915102909198
:1009A00052020817190709F058CF0E94C70955CFFE
:1009B000809153028150809353020E94AC0680E0E4
:1009C000DACFE5EAF0E02491E1E9F0E084918823D0
:1009D00099F090E0880F991FFC01E859FF4FA5910D
:1009E000B491FC01E458FF4F859194918FB7F8942E
:1009F000EC91E22BEC938FBFC6EAD0E0FE0124918C
:100A000042E9E42E40E0F42EF70184918823C9F0F6
:100A100090E0880F991FFC01E859FF4FA591B49110
:100A2000FC01E458FF4F459154913FB7F8949C91D5
:100A3000822F809598239C93FA019081892380834B
:100A40003FBF93E0C92ED12C23E2A22EB12C60E04F
:100A50008BE00E948C00C6010197F1F761E08BE00A
:100A60000E948C00C5010197F1F760E08BE00E94C5
:100A70008C00FE016491F7018491E82FF0E0EE0F05
:100A8000FF1FEE58FF4F8591949100E412E42FE090
:100A900030E0462F0E9467066115710581059105BA
:100AA00029F06F5F7F4F8F4F9F4F9F700E94F2170B
:100AB00028E23EE74CE05DE30E94A91820E030E028
:100AC00040E05FE30E94A9182B013C0120E030E0E8
:100AD000A9010E94A41887FD0CC020E030E040EA84
:100AE00050E4C301B2010E944C1710E000E087FD02
:100AF0002EC020E030E040EA50E4C301B2010E9481
:100B0000A41887FD0CC020E030E040E251E4C301AE
:100B1000B2010E944C1701E010E087FD18C020E0F0
:100B200030E040E251E4C301B2010E94A41887FD05
:100B30000CC020E030E040E751E4C301B2010E9464
:100B40004C1702E010E087FD02C003E010E0809146
:100B50000001909101018017910709F478CF6AE0B4
:100B600070E08091EE019091EF010E947E0D813046
:100B700009F06DCF10930101009300018091EE0107
:100B80009091EF010E94530C62CF1F920F920FB60B
:100B90000F9211242F933F938F939F93AF93BF9303
:100BA00080911A0290911B02A0911C02B0911D022B
:100BB0003091190223E0230F2D3758F50196A11D1E
:100BC000B11D2093190280931A0290931B02A093E7
:100BD0001C02B0931D028091150290911602A09103
:100BE0001702B09118020196A11DB11D8093150244
:100BF00090931602A0931702B0931802BF91AF9181
:100C00009F918F913F912F910F900FBE0F901F904A
:100C1000189526E8230F0296A11DB11DD2CF1F9271
:100C20000F920FB60F9211242F933F934F935F9320
:100C30006F937F938F939F93AF93BF93EF93FF93A4
:100C400084E592E00E945901FF91EF91BF91AF912D
:100C50009F918F917F916F915F914F913F912F91D4
:100C60000F900FBE0F901F9018951F920F920FB606
:100C70000F9211242F938F939F93EF93FF93E09103
:100C80006402F09165028081E0916A02F0916B024A
:100C900082FD1BC0908180916D028F5F8F732091C8
:100CA0006E02821741F0E0916D02F0E0EC5AFD4FC8
:100CB000958F80936D02FF91EF919F918F912F916E
:100CC0000F900FBE0F901F9018958081F4CFCF9298
:100CD000DF92EF92FF920F931F93E82FF92F05C039
:100CE000015011092109310961F19081962394176E
:100CF000B9F305C0015011092109310911F19081A1
:100D000096239413F7CFC12CD12CE12CF12C0AC0DF
:100D10008FEFC81AD80AE80AF80A0C151D052E0527
:100D20003F0579F080818623841791F36C2D7D2D0A
:100D30008E2D9F2D1F910F91FF90EF90DF90CF9000
:100D4000089560E070E080E090E01F910F91FF90C7
:100D5000EF90DF90CF900895E0912002F091210272
:100D60008081811107C08FEF9FEF909314028093D1
:100D700013020895E0912002F09121020580F6818E
:100D8000E02D80819181F1CFFC01DB010FB6F89459
:100D90000F924091F1025091F2022D913C911197E6
:100DA0002F3F320711F1818192816091F3027081AE
:100DB000761749F04817590730F01D921C9281E0D0
:100DC0000F900FBE0895481B590B42175307A8F701
:100DD000241B350B2D933C938091F30280838091EB
:100DE000F1029091F2029283818380E0E9CFCF9368
:100DF000DF93DC011596ED91FC910680F781E02DE3
:100E0000A489B5898685978520893189EC013D8340
:100E10002C83C089D1899B838A83CF010C9611963C
:100E20002D913C9112972817390721F41296DC93E3
:100E3000CE931197158A148A2C9121502C932091CE
:100E4000F301211157C0A285B38584819581268144
:100E50003781EC013D832C83C681D7819B838A83B4
:100E6000CF01029611962D913C91129728173907C0
:100E700021F41296DC93CE931197138612862C914F
:100E800021502C93C689209118032C1710F4C0937D
:100E9000180329E02C9FE0011124CC50DD4F09807C
:100EA000DA81C02DD583C4834C815D81578346830D
:100EB000AC81BD8113969C938E9312979D838C83F6
:100EC000A689A29FD0011124AC50BD4FB387A28741
:100ED0008C918F5F8C93A0915102B09152029689B0
:100EE00056968C91891730F581E08093F201DF915D
:100EF000CF910895A0913502B0913602B787A687A9
:100F000014962D913C911597318B208B1496CD9191
:100F1000DC9115979B838A8315969C938E931497E7
:100F200084E392E0958B848B809134028F5F809371
:100F30003402D1CF80E0DBCF0FB6F8940F928091CE
:100F4000F1029091F2020F900FBE08958091F3018B
:100F50008F5F8093F30108950FB6F8940F92FC0110
:100F6000928D0F900FBE81E0911180E00895EF9275
:100F7000FF920F931F93CF93DF93EC010FB6F8947A
:100F80000F921E8D7C0181E1E80EF11C01E011162B
:100F9000D4F08FEF8E8F0F900FBE0FB6F8940F9294
:100FA0001D8D7E0188E0E80EF11C01E01116B4F001
:100FB0008FEF8D8F0F900FBEDF91CF911F910F910B
:100FC000FF90EF9008958989882319F3C7010E9443
:100FD000F70681110093F2011150D9CF888588233B
:100FE00039F3C7010E94F70681110093F2011150F5
:100FF000DDCFCF93DF93FC01A085B1858281938102
:1010000024813581EC013D832C83C481D5819B8370
:101010008A8311968D919C9112978E179F0721F4C8
:101020001296DC93CE931197118610868C91815085
:101030008C93DF91CF9108950F931F93CF93DF93FC
:101040008C01FB0180819181D80113968F3F980715
:10105000F1F4E801AF81B88512968D919C911397B8
:1010600093838283EC01FD83EC83B583A483139681
:10107000FC93EE93129711870087F80180818F5FB0
:101080008083DF91CF911F910F910895D90112961E
:101090002D913C911397E901488159818417950757
:1010A000A8F7DACFFC0173836283918780874617A4
:1010B000570790F0421B530B8485958548175907B5
:1010C000C8F4BF016E5F7F4F8091F9019091FA01E2
:1010D0000E941C0880E008954217530718F4621715
:1010E000730740F4BF016E5F7F4F8091FB019091C9
:1010F000FC01EECF81E00895EF92FF920F931F93D2
:10110000CF93DF93EC018B017A016C857D85600FB5
:10111000711F9801A701CE010E945208811107C0DA
:10112000DF91CF911F910F91FF90EF9008958C85E3
:101130009D85080F191FE889F989CE010995E5CF2A
:10114000EF92FF920F931F93CF93DF938C017B015C
:10115000E091FB01F091FC010580F681E02DC68154
:10116000D781CE0102960E94F9078A8982FF0FC0BB
:10117000A701B801CE010E947C08E889F989CE0157
:10118000DF91CF911F910F91FF90EF9009948E7F87
:101190008A8BF3CFE091FB01F091FC0180818111FA
:1011A0000DC08091F9019091FA019093FC01809318
:1011B000FB01F093FA01E093F90108950580F681AF
:1011C000E02D6FEF7FEF808191810E94A008E2CF38
:1011D000BF92CF92DF92EF92FF920F931F93CF9324
:1011E000DF93EC01B62EC090F102D090F202009194
:1011F000200210912102E0901E02F0901F028091C7
:1012000051029091520202960E94F907CF3FDC07EB
:1012100009F042C0BB2009F43FC0E0912302F091E5
:101220002402A0915102B09152021596FC93EE93C4
:101230001497A0915102B091520284819581179622
:101240009C938E9316978091510290915202A481A3
:10125000B581029613969C938E93129780915102BA
:1012600090915202029695838483E0915102F0910D
:10127000520282E292E093878287809122028F5FFE
:1012800080932202DF91CF911F910F91FF90EF90F9
:10129000DF90CF90BF900895CC0DDD1DE0915102FD
:1012A000F0915202D383C283609151027091520235
:1012B0006E5F7F4FCC15DD0560F4C701DF91CF91E4
:1012C0001F910F91FF90EF90DF90CF90BF900C9403
:1012D0001C08C8010E941C088091130290911402FE
:1012E000C817D90778F6D0931402C0931302CACF57
:1012F000CF93DF93EB016091510270915202645FD2
:101300007F4F0E941C0861E0CE01DF91CF910C94C9
:10131000E808FC010396928381832FEF3FEF34832B
:101320002383968385839087878310820895CF9344
:10133000DF93EC010FB6F8940F92888199812B8D81
:101340004C8DBC01249F600D711D11247D836C8325
:101350001A8E9B838A832150330B429FB001439F97
:10136000700D1124860F971F9F838E838FEF8D8FB3
:101370008E8FCE0108960E948909CE0141960E9467
:1013800089090F900FBE81E0DF91CF9108950F92F0
:101390000FB6F8940F921F9211242F923F924F9202
:1013A0005F926F927F928F929F92AF92BF92CF92F5
:1013B000DF92EF92FF920F931F932F933F934F93E0
:1013C0005F936F937F938F939F93AF93BF93CF93CD
:1013D000DF93EF93FF93A0915102B09152020DB6AB
:1013E0000D920EB60D928091F301882321F081E0D9
:1013F0008093F20161C01092F201A0915102B0916C
:101400005202E0915102F09152022D913C91878954
:10141000908D82179307A8F080915102909152020B
:101420008091510290915202259A2D9A2FEF87EACE
:1014300091E6215080409040E1F700C000001D9AE5
:10144000F5CF2091180389E001C02150422F50E0D0
:10145000849FF001859FF00D1124EC50FD4F908189
:10146000992399F3A181B28112966D917C91728337
:101470006183289FC001112489509D4F6817790707
:1014800021F4858196819283818389E0849FF00194
:10149000859FF00D1124EC50FD4F0180F281E02D6D
:1014A0008681978190935202809351022093180372
:1014B0008091510290915202A0915102B09152023A
:1014C000CD91CDBFDD91DEBFFF91EF91DF91CF9147
:1014D000BF91AF919F918F917F916F915F914F914C
:1014E0003F912F911F910F91FF90EF90DF90CF9040
:1014F000BF90AF909F908F907F906F905F904F9034
:101500003F902F901F900F900FBE0F9008958F92D5
:101510009F92BF92CF92DF92EF92FF920F931F9311
:10152000CF93DF930FB6F8940F928091F30181501F
:101530008093F3018091F301882379F080E00F908C
:101540000FBEDF91CF911F910F91FF90EF90DF9031
:10155000CF90BF909F908F900895809153028823E1
:1015600069F3E0903902F0903A02F0E0E0E039E00F
:1015700041E08091340281115EC0EF2B11F00E9496
:10158000AC06E090F001F090F101E114F10409F4EF
:101590007DC189E0D82ECC24C3940FEF1FEF80913A
:1015A000F301811161C1C091F102D091F2024E01AB
:1015B0008FEF881A980A9092F2028092F1028114B9
:1015C0009104B9F4809120029091210220911E0291
:1015D00030911F02309321022093200290931F022A
:1015E00080931E028091F3028F5F8093F3020E942A
:1015F000AC068091130290911402B12C88169906C2
:1016000008F026C1E0915102F0915202E689DE9E77
:10161000F0011124EC50FD4F8081823010F0BB248A
:10162000B3948091F201811103C0BB2009F425C15C
:10163000C092F20122C1D7011696ED91FC91A489C6
:10164000B5896685778580899189EB019D838C8337
:1016500080899189EC017B836A83BF01645F7F4F3E
:1016600011960D911C9112970617170721F41296E7
:101670009C938E931197158A148A8C9181508C9328
:10168000A285B3858481958166817781EC017D8314
:101690006C8366817781EB019B838A83CF010296FD
:1016A00011960D911C9112970817190721F41296A3
:1016B0007C936E931197138612862C9121502C9354
:1016C000A689209118032A1710F4A09318033A9FB3
:1016D000D0011124AC50BD4F11960D90BC91A02D9E
:1016E000B583A48314966D917C9115977783668357
:1016F00014966D917C911597EB019B838A831596C7
:101700009C938E9314979689939FD0011124AC508B
:10171000BD4FB387A2878C918F5F8C93A0915102AC
:10172000B091520256968C91891708F022CF4093BF
:10173000F2011FCFE0912002F09121020580F68195
:10174000E02D0680F781E02D82819381881699062D
:1017500028F4909314028093130254CFC285D3854A
:101760008481958126813781DC0115963C932E93E7
:10177000149726813781D90113969C938E931297E3
:10178000CF01029649815A814817590711F43A83CB
:10179000298313861286288121502883A489B5893C
:1017A0001097F9F02685378540895189E9015D83D5
:1017B0004C8340895189EA013B832A8311966D91BC
:1017C0007C9112979F01245F3F4F6217730721F4AA
:1017D00012965C934E931197158A148A2C9121507E
:1017E0002C93A689209118032A1710F4A0931803AC
:1017F000DA9ED0011124AC50BD4F11960D90BC91D2
:10180000A02DB583A48314962D913C911597378311
:10181000268314962D913C911597E9019B838A8329
:1018200015969C938E93149796899D9DD0011124B3
:10183000AC50BD4FB387A2878C918F5F8C93E091A2
:101840005102F09152028689891710F4BB24B39497
:10185000E0912002F0912102808181116BCF1093E1
:10186000140200931302CECE8091F0019091F10109
:1018700001969093F1018093F001D1E0ED1AF10807
:1018800009F08DCE1092F1011092F0018091F201D9
:10189000882309F453CE80915102909152020E9404
:1018A000C70981E04CCEAF92BF92DF92EF92FF92D8
:1018B0000F931F93CF93DF9300D000D01F92CDB72B
:1018C000DEB78C011D821C8280E0780198E0E90E71
:1018D000F11C0FB6F8940F92D8015A962C915A9792
:1018E0005B969C915B97291708F0B0C05A96DC90E4
:1018F0005A975C964C915C9741118CC08D919C914C
:10190000892B11F080E00AC0F801E480F580E11431
:10191000F10431F580E0F80115821482D394D801E6
:101920005A96DC925A9751969C91992321F0C801BE
:1019300041960E94F70681110E94C7090F900FBEC1
:1019400081E00F900F900F900F900F90DF91CF914B
:101950001F910F91FF90EF90DF90BF90AF9008958F
:10196000D7019A968C919A9781509A968C939A97D0
:1019700056962C91569799969C91291759F2811158
:10198000C9CF5701B2E0AB0EB11CC5010E94F907E7
:10199000F70181A5868B482F50E024E030E0241B1E
:1019A000350B3587248790911803981710F480938E
:1019B000180389E0849FD001859FB00D1124AC509D
:1019C000BD4F11960D90BC91A02DF701B583A48356
:1019D00014962D913C911597378326831496ED919B
:1019E000FC911597B382A2821596BC92AE92149781
:1019F000D7015696EC915697E89FF0011124EC50D0
:101A0000FD4F1B96FC93EE931A9780818F5F808326
:101A100081E081CF50E070E060E012968D919C9162
:101A20000E946B19F801848D22813381820F932FDC
:101A3000911D93838283248135818217930708F453
:101A400061CF80819181938382835CCF2C813D81A2
:101A5000232B21F40F900FBE80E073CF811109C0BA
:101A60008091F30289838091F1029091F2029B832D
:101A70008A830F900FBE0E94A6070FB6F8940F92AC
:101A8000F801858D8F3F09F4158ED8015E968C91F3
:101A90005E978F3F11F45E961C920F900FBEBE01B1
:101AA0006C5F7F4FCE0101960E94C406811120C059
:101AB0000FB6F8940F92F801928D838D0F900FBEA0
:101AC000981310C06C817D81C7010E947809C801FC
:101AD0000E94B7070E94870A811102C00E94C709AD
:101AE00081E0F7CEC8010E94B7070E94870AF8CFAD
:101AF000C8010E94B7070E94870AAECF7F928F92DB
:101B00009F92AF92BF92CF92DF92EF92FF920F938C
:101B10001F93CF93DF9300D000D01F92CDB7DEB7D5
:101B20008C017D836C83D12C90E0580121E1A20EC1
:101B3000B11C89E0782E24E0822E912C0FB6F89407
:101B40000F92D8015A968C915A978823C9F18150E7
:101B50005A968C935A978D919C91892B71F4E091B0
:101B60005102F0915202309719F082A58F5F82A73F
:101B7000D8011596FC93EE931497F801808588237D
:101B800039F0C80108960E94F70681110E94C70922
:101B90000F900FBEDD24D3948D2D0F900F900F90DA
:101BA0000F900F90DF91CF911F910F91FF90EF90C9
:101BB000DF90CF90BF90AF909F908F907F900895CF
:101BC0002C813D81232B21F40F900FBED12CE4CF2B
:101BD000911109C08091F30289838091F102909163
:101BE000F2029B838A830F900FBE0E94A6070FB656
:101BF000F8940F92D8015D968C915D978F3F11F408
:101C00005D961C92F801868D8F3F09F4168E0F9019
:101C10000FBEBE016C5F7F4FCE0101960E94C406CD
:101C20008111AFC0C8010E94AC07882309F4A3C08A
:101C3000D8018D919C91892B09F078C00FB6F8944A
:101C40000F92F801E480F580E114F10409F491C0E9
:101C5000D70156968C915697E0915102F09152021D
:101C60009689891708F07AC01C962D913C911D9792
:101C700037FD0CC0E0915102F09152029689940117
:101C8000291B31091D963C932E931C97879DC001FB
:101C900011248C509D4FF701228533852817390771
:101CA00009F054C06701F2E0CF0ED11CC6010E94BA
:101CB000F907E0915102F0915202E689D701569658
:101CC000EC93809118038E1710F4E09318037E9E16
:101CD000F0011124EC50FD4F0180F281E02DD7017D
:101CE0001596FC93EE9314978481958117969C9397
:101CF0008E931697A481B5811396DC92CE9212979B
:101D0000D582C482D7015696EC915697E79DF00193
:101D10001124EC50FD4F1B96FC93EE931A97808193
:101D20008F5F8083DD24D3940F900FBE6C817D8103
:101D3000C5010E947809C8010E94B7070E94870A5E
:101D4000811102C00E94C70991E0F8CEE0915102D2
:101D5000F09152028689F701868BE4CFE09151021F
:101D6000F0915202DD24D39499969C91868998171C
:101D7000D8F2D12CD9CFC8010E94B7070E94870A98
:101D8000E3CFC8010E94B7070E94870AC8010E94DA
:101D9000AC078823C9F2DD2009F4FECE0FB6F89413
:101DA0000F92F8018189882309F47BC00688F7899E
:101DB000E02D908184E0891BD80114960D911C912F
:101DC0000115110509F400CFF80191A5981708F441
:101DD000982FD80156968C915697981709F4F4CEFF
:101DE0009A962C919A97213009F0EECE56969C93B4
:101DF00056971C962D913C911D9737FD08C024E005
:101E000030E0291B31091D963C932E931C97B9E0B5
:101E10008B9FC00111248C509D4FF8012285338582
:101E20002817390709F0D0CE7801F2E0EF0EF11C47
:101E3000C7010E94F907F801A689809118038A1743
:101E400010F4A093180389E08A9FD0011124AC50AC
:101E5000BD4F11960D90BC91A02DF801B583A483C0
:101E600014962D913C911597378326831496ED9106
:101E7000FC911597F382E2821596FC92EE921497EC
:101E8000D8015696EC915697E89FF0011124EC503A
:101E9000FD4F1B96FC93EE931A9780818F5F808392
:101EA00093CE80E089CF0F920FB6F8940F921F92D5
:101EB00011242F923F924F925F926F927F928F9256
:101EC0009F92AF92BF92CF92DF92EF92FF920F93C9
:101ED0001F932F933F934F935F936F937F938F93B2
:101EE0009F93AF93BF93CF93DF93EF93FF93A09113
:101EF0005102B09152020DB60D920EB60D9213BE64
:101F00008091F3018111F9C08091F1029091F20268
:101F100001969093F2028093F102009781F520914F
:101F200020023091210240911E0250911F025093D5
:101F300021024093200230931F0220931E02209121
:101F4000F3022F5F2093F302E0912002F09121022F
:101F50002081211107C02FEF3FEF3093140220930F
:101F600013020DC0E0912002F09121020580F6815C
:101F7000E02D2081318130931402209313022091AF
:101F80001302309114028217930710F420E0A1C0CD
:101F900020E039E0D32EE0912002F091210230813F
:101FA000311107C08FEF9FEF9093140280931302BB
:101FB00090C0E0912002F09121020580F681E02D91
:101FC0000680F781E02D428153818417950728F41C
:101FD00050931402409313027CC0A285B3854481C0
:101FE000558166817781EA017D836C836681778183
:101FF000EB015B834A83AF014E5F5F4F11960D91FA
:102000001C9112970417150721F412967C936E9376
:102010001197138612863C9131503C93A489B5895F
:102020001097F9F06685778500891189EB011D838A
:102030000C8300891189E8017B836A831196ED90F6
:10204000FC901297BF01645F7F4FE616F70621F4FC
:1020500012961C930E931197158A148A3C91315055
:102060003C93A689309118033A1710F4A0931803F3
:10207000DA9ED0011124AC50BD4F11960D90BC9149
:10208000A02DB583A48314966D917C9115977783C9
:10209000668314966D917C911597EB015B834A835F
:1020A00015965C934E93149746894D9DD00111244B
:1020B000AC50BD4FB387A2873C913F5F3C93E0910A
:1020C0005102F09152023689341708F064CF21E0B2
:1020D00062CFE0915102F0915202E689D9E0ED9F82
:1020E000F0011124EC50FD4F8081823008F021E096
:1020F0008091F20181110EC00AC08091F00190918F
:10210000F10101969093F1018093F0016CC02223BC
:1021100009F469C08091F301882321F081E0809364
:10212000F20161C01092F201A0915102B0915202ED
:10213000E0915102F09152022D913C918789908D4E
:1021400082179307A8F080915102909152028091DA
:10215000510290915202259A2D9A2FEF87EA91E62B
:10216000215080409040E1F700C000001D9AF5CF5B
:102170002091180389E001C02150422F50E0849F34
:10218000F001859FF00D1124EC50FD4F90819923B3
:1021900099F3A181B28112966D917C9172836183D2
:1021A000289FC001112489509D4F6817790721F499
:1021B000858196819283818389E0849FF001859F48
:1021C000F00D1124EC50FD4F0180F281E02D86814D
:1021D000978190935202809351022093180380912B
:1021E000510290915202A0915102B0915202CD91B0
:1021F000CDBFDD91DEBFFF91EF91DF91CF91BF9118
:10220000AF919F918F917F916F915F914F913F918E
:102210002F911F910F91FF90EF90DF90CF90BF9083
:10222000AF909F908F907F906F905F904F903F9076
:102230002F901F900F900FBE0F900895CF93DF93B4
:10224000009751F0EC010E94A607CE010E9456169D
:10225000DF91CF910C94870ADF91CF910895CF93AE
:10226000DF93CDB7DEB72A970FB6F894DEBF0FBE67
:10227000CDBF85E0B82ECE0101967C01E091FB0137
:10228000F091FC011081D12CC12C112329F0058083
:10229000F681E02DC080D1800E94A6070E949C0795
:1022A0004C018091F5019091F6018816990608F08D
:1022B00090C00E94CA089092F6018092F5010E9497
:1022C000870AD701EB2D1D92EA95E9F700911102DB
:1022D000109112021A86198680E04801F1E18F0EF2
:1022E000911C0FB6F8940F92D8015A96DC905A9729
:1022F000DD2009F42FC15C964C915C974423F9F0E2
:1023000050E016968D919C911797840F951F179604
:102310009C938E93169714962D913C911597821746
:10232000930738F08D919C91119717969C938E93FB
:102330001697F80166817781C7010E946B19DA94BC
:10234000D8015A96DC925A9718968C91882339F0C6
:10235000C80108960E94F70681110E94C7090F90D4
:102360000FBEA980A7FCB2CF0C811D81D8011A969F
:102370008D919C91892B21F0C80102960E94F9074A
:102380000E949C076C018091F5019091F601C8169E
:10239000D90610F40E94CA08D092F601C092F50145
:1023A000EFEFEA0DE93008F091CF0E2E000CFF0B95
:1023B000E052FE4ED80152968C9152970C945119CE
:1023C00063126312A6128E12A01263126312A61277
:1023D0008E129092F6018092F501112351F08C1427
:1023E0009D0470F00E94870AB401C6010E94A008F3
:1023F00068CFE091F901F091FA0161E080818111EB
:1024000060E000911102109112020FB6F8940F9241
:10241000D8015D968C915D978F3F11F45D961C926B
:10242000F801868D8F3F09F4168E0F900FBED801EC
:102430005A968C915A9781113CC05296ED91FC911D
:10244000A0915102B09152021F96FC93EE931E97F9
:10245000A0915102B09152028481958151969C9332
:102460008E9350978091510290915202A481B58130
:102470000C9613969C938E93129780915102909193
:1024800052020C9695838483E0915102F09152029E
:10249000C8014196958B848BF80181898F5F818B70
:1024A000C60188199909662311F08FEF9FEF0E94EA
:1024B000E808C8010E94B7070E94870A811101CF6E
:1024C0000E94C709FECE8160F801828B8A809B80C2
:1024D00064857585680D791D9401A601C8010E9467
:1024E0005208882309F4F2CED80152968C91529763
:1024F00082FF10C01C966D917C91680D791DA6011C
:10250000C8010E947C08D8015096ED91FC91C80149
:102510000995DCCE8E7FF801828BF5CF81605296D3
:102520008C9352976A817B811D967C936E931C9746
:102530006C0D7D1D9601A601C8010E945208C6CEF1
:1025400081FD04C0C8010E941E11C0CE8E7FF8011B
:10255000828BBCCE29853A85232B19F40F900FBEB0
:102560008DCE811109C08091F3028E838091F1029A
:102570009091F20298878F830F900FBE0E94A6075A
:102580000FB6F8940F92F801858D8F3F09F4158EE0
:10259000D8015E968C915E978F3F11F45E961C92E7
:1025A0000F900FBEBE01675F7F4FCE0106960E945F
:1025B000C40681111BC0C8010E94AC07882381F0AA
:1025C00069857A85C4010E947809C8010E94B7070D
:1025D0000E94870A811102C00E94C70981E081CE52
:1025E000C8010E94B7070E94870AF8CFC8010E945D
:1025F000B7070E94870AC8010E94AC07882371F3BD
:102600003DCE00E010E08091F40181110CC080917A
:10261000F402823010F00E94C7090115110599F3E8
:102620000E944C01F0CF0FB6F8940F92E091300267
:10263000F0913102C681D781CE0102960E94F9073E
:10264000809153028150809353028091F401815014
:102650008093F4010F900FBE8F89988D0E941E11F8
:10266000CE010E941E11CFCFCF93DF93EC010E94C9
:10267000A607CE010E94BA15EC010E94870A209796
:1026800069F4259A2D9A2FEF80E792E0215080403F
:102690009040E1F700C000001D9AF5CFCE01DF9118
:1026A000CF9108957F928F929F92AF92BF92CF92D7
:1026B000DF92EF92FF920F931F93CF93DF93982EA9
:1026C000A92E762E872E7A01B22ECA010E943413CB
:1026D0006C01892B09F4EDC080E390E00E94341373
:1026E000EC01892B09F4E2C080E3DE011D928A959A
:1026F000E9F7D88ECF8AA70165EA70E0C6010E948B
:102700007419B1E0EB1AF108EF89F88DEE0DFF1D99
:10271000672D782DCE0149969B01205F3F4FDB014D
:102720004D91BD01DC014D93CD01AB0141505109EB
:10273000DA014C91442319F02617370781F718A6C0
:10274000BE8AB9A61B861A861D8A1C8AD987C887A5
:1027500084E090E08B1991099D878C87DB8BCA8B75
:102760009082DF011197AC9211971C92119780E82B
:102770008C9311971C9257971C9211971C92B397A8
:10278000F983E8830115110519F0F801D183C0839D
:102790000FB6F8940F92809153028F5F809353028B
:1027A0008091510290915202892B09F091C0D093EF
:1027B0005202C093510280915302813081F584EF1F
:1027C00092E00E9489098DEF92E00E94890986E0DB
:1027D00093E00E9489098FE093E00E94890986E4D2
:1027E00092E00E9489098DE392E00E94890984E3C6
:1027F00092E00E9489098BE292E00E94890982E2BC
:1028000092E00E94890986E492E0909321028093ED
:1028100020028DE392E090931F0280931E0280912C
:102820004F028F5F80934F02AE89809118038A1701
:1028300010F4A093180329E02A9FD0011124AC5072
:10284000BD4F11960D90BC91A02DBD83AC83149605
:102850008D919C9115979F838E831496ED91FC9199
:102860001597CE0102969383828315969C938E933F
:102870001497EE89E29FF0011124EC50FD4FFB8785
:10288000EA8780818F5F80830F900FBE8091500216
:10289000882351F0E0915102F091520296898E897D
:1028A000981710F40E94C70981E004C0C6010E9475
:1028B0001E118FEFDF91CF911F910F91FF90EF903D
:1028C000DF90CF90BF90AF909F908F907F900895B2
:1028D000809150028111A3CFE0915102F0915202F8
:1028E00096898E89891708F49ACFD0935202C093A3
:1028F000510295CF0E94530F1895CF93DF93CDB718
:10290000DEB760970FB6F894DEBF0FBECDBF7894E8
:1029100084B5826084BD84B5816084BD85B58260E4
:1029200085BD85B5816085BD80916E008160809395
:102930006E001092810080918100826080938100FE
:10294000809181008160809381008091800081600E
:10295000809380008091B10084608093B100809169
:10296000B00081608093B00080917A008460809391
:102970007A0080917A00826080937A0080917A0058
:10298000816080937A0080917A00806880937A00D9
:102990001092C10020910701309108018FEF98E05B
:1029A000821B930B90930401809303010E94C80340
:1029B000AFEDB1E0FE013196BF018D918193882387
:1029C00021F081E0AF3EB807C1F707EF11E020E04A
:1029D00040EC50E081E093E10E945213882309F417
:1029E00090C0813009F08DC00FB6F8940F9280919D
:1029F000110290911202892B51F586E092E00E941B
:102A000089098DEF91E00E94890986E092E0909318
:102A1000FC018093FB018DEF91E09093FA0180938C
:102A2000F90181E590E00E9434138C01009759F080
:102A30004F96F801918380838AE0838F85E0848FAD
:102A4000C8010E94970910931202009311020F907F
:102A50000FBE8091110290911202892B09F451C08E
:102A60000FE012E023E04CE550E064EE71E08FE20D
:102A700091E10E945213813009F043C0F8942FEF86
:102A80003FEF309314022093130280935002109270
:102A9000F2021092F102A89588E190EC0FB6F8943A
:102AA000A895809360000FBE90936000A0915102A2
:102AB000B0915202CD91CDBFDD91DEBFFF91EF917C
:102AC000DF91CF91BF91AF919F918F917F916F9146
:102AD0005F914F913F912F911F910F91FF90EF9038
:102AE000DF90CF90BF90AF909F908F907F906F902E
:102AF0005F904F903F902F901F900F900FBE0F90C0
:102B00000895809102010E94C80300E010E00115C1
:102B10001105E9F30E944C01FACFE4E5F2E01382DB
:102B2000128288EE93E0A0E0B0E084839583A683D0
:102B3000B7838DE091E09183808385EC90E0958769
:102B4000848784EC90E09787868780EC90E0918B77
:102B5000808B81EC90E0938B828B82EC90E0958B64
:102B6000848B86EC90E0978B868B118E128E138E61
:102B7000148E08950F931F93CF93DF9382309105A6
:102B800010F482E090E0E0911B03F0911C0330E030
:102B900020E0B0E0A0E0309799F42115310509F468
:102BA0004AC0281B390B24303105D8F58A819B8116
:102BB0006115710589F1FB0193838283FE0111C0C8
:102BC000408151810281138148175907E0F048176D
:102BD000590799F4109761F012960C931297139677
:102BE0001C933296CF01DF91CF911F910F910895E1
:102BF00000931B0310931C03F4CF2115310551F0F2
:102C00004217530738F0A901DB019A01BD01DF012A
:102C1000F801C1CFEF01F9CF90931C0380931B0300
:102C2000CDCFFE01E20FF31F819391932250310922
:102C300039832883D7CF2091190330911A03232B8E
:102C400041F4209105013091060130931A0320933D
:102C5000190320910301309104012115310541F43C
:102C60002DB73EB74091070150910801241B350B49
:102C7000E0911903F0911A03E217F307A0F42E1B59
:102C80003F0B2817390778F0AC014E5F5F4F2417D0
:102C9000350748F04E0F5F1F50931A0340931903F6
:102CA000819391939FCFF0E0E0E09CCFCF93DF93AF
:102CB0000097E9F0FC01329713821282A0911B0366
:102CC000B0911C03ED0130E020E01097A1F42081C9
:102CD0003181820F931F2091190330911A03281715
:102CE000390709F061C0F0931A03E0931903DF91EB
:102CF000CF910895EA01CE17DF07E8F54A815B819D
:102D00009E0141155105B1F7E901FB83EA83499121
:102D10005991C40FD51FEC17FD0761F48081918193
:102D20000296840F951FE90199838883828193819C
:102D30009B838A83F0E0E0E012968D919C9113973B
:102D40000097B9F52D913C911197CD010296820F14
:102D5000931F2091190330911A032817390739F668
:102D6000309751F510921C0310921B03B0931A0375
:102D7000A0931903BCCFD383C28340815181840FB8
:102D8000951FC817D90761F44E5F5F4F88819981FD
:102D9000480F591F518340838A819B81938382838B
:102DA0002115310509F0B0CFF0931C03E0931B030C
:102DB0009ECFFD01DC01C0CF13821282D7CF5058C5
:102DC000BB27AA270E94F7160C946A180E945C1869
:102DD00038F00E94631820F039F49F3F19F426F46C
:102DE0000C9459180EF4E095E7FB0C945318E92F56
:102DF0000E947B1858F3BA17620773078407950778
:102E000020F079F4A6F50C949D180EF4E0950B2EA5
:102E1000BA2FA02D0B01B90190010C01CA01A0012C
:102E20001124FF27591B99F0593F50F4503E68F187
:102E30001A16F040A22F232F342F4427585FF3CFC8
:102E4000469537952795A795F0405395C9F77EF499
:102E50001F16BA0B620B730B840BBAF09150A1F0E2
:102E6000FF0FBB1F661F771F881FC2F70EC0BA0F68
:102E7000621F731F841F48F4879577956795B795F0
:102E8000F7959E3F08F0B0CF9395880F08F09927EB
:102E9000EE0F9795879508950E942F1808F481E00A
:102EA00008950E9465170C946A180E94631858F0E0
:102EB0000E945C1840F029F45F3F29F00C945318ED
:102EC00051110C949E180C9459180E947B1868F3A9
:102ED0009923B1F3552391F3951B550BBB27AA27D3
:102EE00062177307840738F09F5F5F4F220F331F0D
:102EF000441FAA1FA9F335D00E2E3AF0E0E832D0D5
:102F000091505040E695001CCAF72BD0FE2F29D0D7
:102F1000660F771F881FBB1F261737074807AB07A9
:102F2000B0E809F0BB0B802DBF01FF2793585F4F1E
:102F30003AF09E3F510578F00C9453180C949E186B
:102F40005F3FE4F3983ED4F3869577956795B79500
:102F5000F7959F5FC9F7880F911D9695879597F90B
:102F60000895E1E0660F771F881FBB1F6217730784
:102F70008407BA0720F0621B730B840BBA0BEE1F99
:102F800088F7E09508950E94831888F09F5798F07D
:102F9000B92F9927B751B0F0E1F0660F771F881F5E
:102FA000991F1AF0BA95C9F714C0B13091F00E9478
:102FB0009D18B1E008950C949D18672F782F8827ED
:102FC000B85F39F0B93FCCF3869577956795B3959F
:102FD000D9F73EF490958095709561957F4F8F4F0E
:102FE0009F4F0895E89409C097FB3EF49095809513
:102FF000709561957F4F8F4F9F4F9923A9F0F92FBF
:1030000096E9BB279395F695879577956795B7953C
:10301000F111F8CFFAF4BB0F11F460FF1BC06F5F22
:103020007F4F8F4F9F4F16C0882311F096E911C034
:10303000772321F09EE8872F762F05C0662371F055
:1030400096E8862F70E060E02AF09A95660F771F69
:10305000881FDAF7880F9695879597F90895990F45
:103060000008550FAA0BE0E8FEEF16161706E80752
:10307000F907C0F012161306E407F50798F0621B73
:10308000730B840B950B39F40A2661F0232B242B48
:10309000252B21F408950A2609F4A140A6958FEF67
:1030A000811D811D089597F99F6780E870E060E0B9
:1030B00008959FEF80EC089500240A9416161706D1
:1030C00018060906089500240A9412161306140619
:1030D00005060895092E0394000C11F4882352F07C
:1030E000BB0F40F4BF2B11F460FF04C06F5F7F4F34
:1030F0008F4F9F4F089557FD9058440F551F59F01B
:103100005F3F71F04795880F97FB991F61F09F3FD4
:1031100079F087950895121613061406551FF2CFFD
:103120004695F1DF08C0161617061806991FF1CF4D
:1031300086957105610508940895E894BB27662774
:103140007727CB0197F908950E942F1808F48FEF85
:1031500008950E94BC180C946A180E945C1838F0FC
:103160000E94631820F0952311F00C9453180C94CE
:10317000591811240C949E180E947B1870F3959F87
:10318000C1F3950F50E0551F629FF001729FBB275E
:10319000F00DB11D639FAA27F00DB11DAA1F649FFA
:1031A0006627B00DA11D661F829F2227B00DA11DAD
:1031B000621F739FB00DA11D621F839FA00D611D33
:1031C000221F749F3327A00D611D231F849F600D54
:1031D000211D822F762F6A2F11249F5750409AF07D
:1031E000F1F088234AF0EE0FFF1FBB1F661F771F09
:1031F000881F91505040A9F79E3F510580F00C94D4
:1032000053180C949E185F3FE4F3983ED4F38695D0
:1032100077956795B795F795E7959F5FC1F7FE2B73
:10322000880F911D9695879597F908950E942F18FC
:10323000880B990B089597FB072E16F4009407D07E
:1032400077FD09D00E94571907FC05D03EF49095F0
:1032500081959F4F0895709561957F4F0895A1E2E4
:103260001A2EAA1BBB1BFD010DC0AA1FBB1FEE1F00
:10327000FF1FA217B307E407F50720F0A21BB30B4B
:10328000E40BF50B661F771F881F991F1A9469F7C7
:1032900060957095809590959B01AC01BD01CF0123
:1032A0000895EE0FFF1F0590F491E02D0994AA1BDD
:1032B000BB1B51E107C0AA1FBB1FA617B70710F021
:1032C000A61BB70B881F991F5A95A9F78095909553
:1032D000BC01CD010895FB01DC0102C001900D92FB
:1032E00041505040D8F70895DC0101C06D93415022
:0A32F0005040E0F70895F894FFCF76
:1032FA0003000300001D038000000000007B01D8CA
:10330A00000501C8013601140128016E616E0069C9
:10331A006E66006F7666000D0A00506C6163652068
:10332A006F62737461636C65206265747765656E3C
:10333A00200020636D20616E64200020636D2E2EB4
:10334A002E2000426567696E205465737400506CC4
:10335A00616365206F62737461636C652070617369
:10336A0074200050617373004661696C006D757456
:10337A006578206372656174696F6E206661696C35
:10338A0065640073656E736F72207461736B00738A
:10339A00656E736F722D7461736B206372656174ED
:1033AA00696F6E206661696C656400746573742068
:1033BA007461736B00746573742D7461736B20632D
:1033CA0072656174696F6E206661696C6564004933
:0C33DA00444C4500546D72205376630093
:00000001FF
